:100000000C94B8720C94E9720C94E9720C94E97235
:100010000C94E9720C94E9720C94E9720C94E972F4
:100020000C94E9720C94E9720C94E9720C94E972E4
:100030000C94E9720C94E9720C94E9720C94D5CF8B
:100040000C94E9720C94E9720C94E9720C94E972C4
:100050000C94E9720C94E9720C94E9720C946BCED6
:100060000C94E9720C9435CE0C940BCE0C94E9727E
:100070000C94E9720C94E9720C94E9720C94E97294
:100080000C94E9720C94E9720C94E9720C94E97284
:100090000C94E9720C94E9720C94E9720C94B5CE4C
:1000A0000C94E9720C94E9720C94E9720C94E97264
:1000B0000C94E9720C94E9720C94E9720C94E97254
:1000C0000C94E9720C94E9720C94E9720C94E97244
:1000D0000C94E9720C94E9720C94E9720C94E97234
:1000E0000C94E9720C9475740C94D1920C9492E176
:1000F0000C94FC910C9427AE0C946AE10C942F9212
:100100000C9490740C94D37A0C9486E10C9477D26E
:100110000C94D7E00C9482730C946CDF0C948C7468
:100120000C944A730C94EB720C94C1740C948586F5
:100130000C94E2910C94027D0C94EC720C94287354
:100140000C9498860C9468E10C9419730C940384B5
:100150000C947BD60C94C5AD0C9480DF0C943C734E
:100160000C9472E10C9495E10C94B69A0C949474EE
:100170000C9400E10C94C7740C9498740C9436E0C1
:100180000C9481910C94B9740C94AB740C9457AE8C
:100190000C948CE10C948FE10C9480820C94AF74DD
:1001A0000C940C790C94F4730C94E3E00C94A57407
:1001B0000C94AC860C943F920C9498AD0C94B77A46
:1001C0000C94B3740C9405920C948D810C94BDDF47
:1001D0000C94CBE00C945C920C94BD740C949B74C6
:1001E0000C943E840C947A740C94CB740C9488E137
:1001F0000C942B7C0C94FE8E0C946B790C94C77A27
:100200000C943A780C94C7920C94A1740C94FACD87
:10021000E280BBE280BBE280BBE280BB20EFBCB3EC
:10022000EFBCA4E382ABE383BCE3838920E382A831
:10023000E383A9E383BC20E280BBE280BBE280BB16
:10024000E280BB0000000000000000000000000091
:10025000EFBCB3EFBCA4E381A8E383AAE383BCE3D0
:100260008380E383BCE38292E8AABFE69FBBE3817D
:1002700097E381A6E3818FE381A0E38195E3818405
:10028000E380820000000000000000000000000089
:10029000E99BBBE6BA90E38292E58887E3828AE332
:1002A0008081EFBCB3EFBCA4E381AEE9858DE7B7F5
:1002B0009AE38292E7A2BAE8AA8DE38197E381A646
:1002C000000000000000000000000000000000002E
:1002D000E3818FE381A0E38195E38184E380820061
:1002E000000000000000000000000000000000000E
:1002F00000000000000000000000000000000000FE
:1003000000000000000000000000000000000000ED
:100310002028200000000000000000000000000075
:1003200000000000000000000000000000000000CD
:100330002062797465202920000000000000000080
:1003400000000000000000000000000000000000AD
:10035000EFBE8CEFBDABEFBE99EFBE80EFBE9EEF60
:10036000BDB0000000000000000000000000000020
:100370002A2A2A2A2A2A2A2A2A2A2A2A2A2A2A2ADD
:100380002A2A2A2A2A2A2A2A2A2A2A2A2A2A2A2ACD
:10039000000000000000000000000000000000005D
:1003A000000000000000000000000000000000004D
:1003B0002A205344EFBDB6EFBDB0EFBE84EFBE9E22
:1003C00020EFBE8920EFBE8CEFBDABEFBE99EFBE34
:1003D00080EFBE9EEFBDB028EFBE8CEFBDA7EFBD96
:1003E000B2EFBE992920286279746529202A00007D
:1003F0002A2028205B53595354454D7E315D20EF10
:10040000BE80EFBE9EEFBDB9EFBE85EFBE9720EF79
:10041000BDB6EFBE97EFBE83EFBE9EEFBDBD2029F8
:100420002020202A00000000000000000000000042
:10043000E38193E381AEEFBCB3EFBCA4E382ABE313
:1004400083BCE38389E38292E382A8E3839FE3830F
:10045000A5E383ACE383BCE382BFE794A8E381AB6D
:10046000E8A8ADE5AE9AE38197E381A6000000001D
:10047000E38184E38184E381A7E38199E3818BEFC6
:10048000BC9F000000000000000000000000000011
:10049000000000000000000000000000000000005C
:1004A000000000000000000000000000000000004C
:1004B000E38090E5AE9FE8A18CE38091E381A7E71C
:1004C000A2BAE5AE9AE38081E587A6E79086E69931
:1004D00082E99693E381AFE7B484EFBC93EFBC90DD
:1004E000E7A792E381A7E38199E3808200000000FF
:1004F000E381A1E3818CE38186E5A0B4E59088E304
:100500008081E99BBBE6BA90E38292E58887E3822B
:100510008AE38081E3818BE38188E381A6E3818F95
:10052000E381A0E38195E38184E380820000000001
:10053000EFBCA6EFBCA4E5B7AEE38197E3818BE304
:100540008188EFBC9AEFBCA6EFBCA4E38292E38360
:1005500089E383A9E382A4E38396E381ABE585A5E0
:10056000E3828CE3828BE3808200000000000000C5
:10057000E383A9E382A4E38388E38397E383ADE382
:100580008386E382AFE38388EFBC9AE8A8ADE5AE4B
:100590009AE381A8E8A7A3E999A4E38292E5888772
:1005A000E3818BE38188E3828BE38082000000009B
:1005B000E382A4E383A1E383BCE382B8E587BAE5E1
:1005C0008A9BEFBC9AE4BFAEE6ADA3E5BE8CE381A7
:1005D000AEE382A4E383A1E383BCE382B8E3829227
:1005E000E4BD9CE3828BE3808200000000000000F9
:1005F000E38090E296B2E38091E38090E296BCE3E0
:100600008091E381A7E382A4E383A1E383BCE38237
:10061000B8E38292E981B8E38293E381A7E3818F13
:10062000E381A0E38195E38184E380820000000000
:10063000E280BBE280BBE280BBE280BB20EFBCB3C8
:10064000EFBCA4E38395E382A1E382A4E383AB2020
:10065000E382A8E383A9E383BC20E280BBE280BB02
:10066000E280BBE280BB0000000000000000000050
:10067000E38395E382A1E382A4E383ABE38292E880
:10068000AAADE381BFE38193E381BFE383A2E38368
:10069000BCE38389E381A7E9968BE38191E381BE83
:1006A000E3819BE38293E38082000000000000006E
:1006B000E99BBBE6BA90E38292E585A5E3828CE7ED
:1006C0009BB4E38197E381A6E3818FE381A0E3817B
:1006D00095E38184E38082E38380E383A1E381AABD
:1006E000E38289E380810000000000000000000038
:1006F000EFBCB3EFBCA4E38292E38395E382A9E36A
:1007000083BCE3839EE38383E38388E38197E38170
:10071000A6E3818FE381A0E38195E38184E3808276
:1007200000000000000000000000000000000000C9
:10073000E280BBE280BBE280BBE280BB20EFBCB3C7
:10074000EFBCA4E38395E382A1E382A4E383AB201F
:10075000E382A8E383A9E383BC20E280BBE280BB01
:10076000E280BBE280BB000000000000000000004F
:10077000E38395E382A1E382A4E383ABE3818CE688
:100780009BB8E3818DE38193E381BFE383A2E3839D
:10079000BCE38389E381A7E9968BE38191E381BE82
:1007A000E3819BE38293E38082000000000000006D
:1007B000E99BBBE6BA90E38292E585A5E3828CE7EC
:1007C0009BB4E38197E381A6E3818FE381A0E3817A
:1007D00095E38184E38082E38380E383A1E381AABC
:1007E000E38289E380810000000000000000000037
:1007F000EFBCB3EFBCA4E38292E38395E382A9E369
:1008000083BCE3839EE38383E38388E38197E3816F
:10081000A6E3818FE381A0E38195E38184E3808275
:1008200000000000000000000000000000000000C8
:10083000E280BBE280BBE280BBE280BB20EFBCB3C6
:10084000EFBCA4E38395E382A1E382A4E383AB201E
:10085000E382A8E383A9E383BC20E280BBE280BB00
:10086000E280BBE280BB000000000000000000004E
:10087000E38395E382A1E382A4E383ABE381ABE668
:100880009BB8E3818DE38193E381BFE381A7E3819B
:100890008DE381BEE3819BE38293EFBC81EFBC815A
:1008A0000000000000000000000000000000000048
:1008B000E99BBBE6BA90E38292E585A5E3828CE7EB
:1008C0009BB4E38197E381A6E3818FE381A0E38179
:1008D00095E38184E38082E38380E383A1E381AABB
:1008E000E38289E380810000000000000000000036
:1008F000EFBCB3EFBCA4E38292E38395E382A9E368
:1009000083BCE3839EE38383E38388E38197E3816E
:10091000A6E3818FE381A0E38195E38184E3808274
:1009200000000000000000000000000000000000C7
:10093000E280BBE280BBE280BBE280BBE280BB2006
:10094000EFBC8FEFBCA5EFBCADEFBCB520E382A838
:10095000E383A9E383BC20E280BBE280BBE280BBEF
:10096000E280BBE280BB000000000000000000004D
:10097000E382B7E382B9E38386E383A0E381ABE458
:10098000B88DE695B4E59088E3818CE8B5B7E3814E
:100990008DE381A6E38184E381BEE38199EFBC818D
:1009A000EFBC81000000000000000000000000001B
:1009B000E99BBBE6BA90E38292E58887E3828AE30B
:1009C0008081EFBCB3EFBCA4E38292EFBCB0EFBC7C
:1009D000A3E381A7E38395E382A9E383BCE3839E3A
:1009E000E38383E38388E38197E380810000000051
:1009F000E5868DE5BAA6E38081E382A4E3838BE3F9
:100A000082B7E383A3E383A9E382A4E382BAE38208
:100A100092E38197E381A6E3818FE381A0E381954F
:100A2000E38184E3808200000000000000000000F9
:100A3000E280BBE280BBE280BBE280BBE280BB2005
:100A4000E981B8E381B9E381BEE3819BE38293EF5F
:100A5000BC81EFBC8120E280BBE280BBE280BBE2D4
:100A600080BBE280BB00000000000000000000002E
:100A7000E38395E382A1E382A4E383ABE382B5E35E
:100A800082A4E382BAE3818CE381A1E3818CE381D8
:100A900084E381BEE38199E38082000000000000CE
:100AA0000000000000000000000000000000000046
:100AB000E38193E3828CE381AFE38081E4BDBFE314
:100AC0008188E381AAE38184EFBCA6EFBCA4E38321
:100AD00095E382A9E383BCE3839EE38383E3838876
:100AE000E381A7E38199E380820000000000000019
:100AF000E280BBE280BBE280BBE280BBE280BB2045
:100B0000E981B8E381B9E381BEE3819BE38293EF9E
:100B1000BC81EFBC8120E280BBE280BBE280BBE213
:100B200080BBE280BB00000000000000000000006D
:100B3000E38193E3828CE381AFE38081E38389E304
:100B400083A9E382A4E38396E3818BE38289EFBCEC
:100B5000A6EFBCA4E58F96E587BAE38197E794A852
:100B6000E381A7E38199E380820000000000000098
:100B7000EFBCBBEFBCA6EFBCA4E5B7AEE38197E347
:100B8000818BE38188EFBCBDE381AEE69982E3818E
:100B9000A0E38191E4BDBFE38188E381BEE3819955
:100BA000E380820000000000000000000000000060
:100BB000E280BBE280BBE280BBE280BB20EFBCB343
:100BC000EFBCA4E38395E382A1E382A4E383AB209B
:100BD000E382A8E383A9E383BC20E280BBE280BB7D
:100BE000E280BBE280BB00000000000000000000CB
:100BF000EFBCBBEFBCA6EFBCA4EFBCBFEFBCA9EF42
:100C0000BCAEEFBCBDE38395E382A9E383ABE38392
:100C100080E381ABE38395E382A1E382A4E383AB2A
:100C2000E3818C00000000000000000000000000D4
:100C3000E38182E3828AE381BEE3819BE38293EFD7
:100C4000BC81EFBC8120E99BBBE6BA90E38292E5D0
:100C50008887E3828AE380810000000000000000B2
:100C60000000000000000000000000000000000084
:100C7000EFBCB3EFBCA4E381ABEFBCA6EFBCA4E335
:100C800082A4E383A1E383BCE382B8E38292E58597
:100C9000A5E3828CE381A6E3818FE381A0E38195C4
:100CA000E38184E380820000000000000000000077
:100CB000E280BBE280BBE280BBE280BB20EFBCB342
:100CC000EFBCA4E38395E382A1E382A4E383AB209A
:100CD000E382A8E383A9E383BC20E280BBE280BB7C
:100CE000E280BBE280BB00000000000000000000CA
:100CF000EFBCBBEFBCA6EFBCA4EFBCBFEFBCA9EF41
:100D0000BCAEEFBCBDE38395E382A9E383ABE38391
:100D100080E381ABE38395E382A1E382A4E383AB29
:100D2000E3818C00000000000000000000000000D3
:100D3000E5A49AE38199E3818EE381BEE38199EF93
:100D4000BC81EFBC8120E99BBBE6BA90E38292E5CF
:100D50008887E3828AE380810000000000000000B1
:100D60000000000000000000000000000000000083
:100D7000EFBC96EFBC94E5808BE4BBA5E4B88BE3B5
:100D800081ABE6B89BE38289E38197E381A6E381A7
:100D90008FE381A0E38195E38184E38082000000FA
:100DA0000000000000000000000000000000000043
:100DB000E296A0E296A0E296A0E296A0EFBCA6EF93
:100DC000BCA4E5B7AEE38197E3818BE38188E3813F
:100DD0008CE981B8E381B0E3828CE381BEE3819743
:100DE000E3819FE296A0E296A0E296A0E296A000A0
:100DF000E38090E296B2E38091E38090E296BCE3D8
:100E00008091E381A7E38389E383A9E382A4E38359
:100E100096E38292E981B8E38293E381A7E3818F2D
:100E2000E381A0E38195E38184E3808200000000F8
:100E3000E38090E5AE9FE8A18CE38091E381A7E792
:100E4000A2BAE5AE9AE38081E38090E4B8ADE6AD66
:100E5000A2E38091E381A7E38284E38281E381BE00
:100E6000E38199E3808200000000000000000000A0
:100E7000E296A0E296A0E296A0E296A020E3838903
:100E8000E383A9E382A4E38396E3818CE981B8E359
:100E900081B0E3828CE381BEE38197E3819F20E20E
:100EA00096A0E296A0E296A0E296A00000000000C4
:100EB000E38090E296B2E38091E38090E296BCE317
:100EC0008091E381A7E382A4E383A1E383BCE3826F
:100ED000B8E38292E981B8E38293E381A7E3818F4B
:100EE000E381A0E38195E38184E380820000000038
:100EF000E38090E5AE9FE8A18CE38091E381A7E7D2
:100F0000A2BAE5AE9AE38081E38090E4B8ADE6ADA5
:100F1000A2E38091E381A7E38284E38281E381BE3F
:100F2000E38199E3808200000000000000000000DF
:100F3000E4BDBFE38188E381AAE38184EFBCA6EF2F
:100F4000BCA4E38395E382A9E383BCE3839EE383AC
:100F500083E38388E381A7E38199E3808200000033
:100F60000000000000000000000000000000000081
:100F7000E38389E383A9E382A4E38396E3818BE39C
:100F80008289EFBCA6EFBCA4E58F96E587BAE38122
:100F900097E794A8E381A7E38199E38082000000AA
:100FA0000000000000000000000000000000000041
:100FB0002D2D2D2D2D2D2D2D2D2D2D2D2D2D2D2D61
:100FC0002D2D2D2D2D2D2D2D2D2D2D2D2D2D2D2D51
:100FD0002D2D2D2D2D2D2D2D2D2D2D2D2D2D2D2D41
:100FE0002D2D2D2D2D2D2D2D2D2D2D2D2D2D2D2D31
:100FF0002D2D2D2D2D2D2D2D2D2D2D2D2D2D2D2D21
:101000002D2D2D2D2D2D2D2D2D2D2D2D2D2D2D2D10
:101010002D2D2D2D2D0A00000000000000000000E5
:1010200000000000000000000000000000000000C0
:1010300000000000000000000000000000000000B0
:1010400000000000000000000000000000000000A0
:101050000000000000000000000000000000000090
:101060000000000000000000000000000000000080
:101070000000000000000000000000000000000070
:101080000000000000000000000000000000000060
:101090000000000000000000000000000000000050
:1010A0000000000000000000000000000000000040
:1010B0005344EFBDB6EFBDB0EFBE84EFBE9EE381FB
:1010C000ABE381A4E38184E381A60A000000000071
:1010D0000000000000000000000000000000000010
:1010E0000000000000000000000000000000000000
:1010F00000000000000000000000000000000000F0
:1011000000000000000000000000000000000000DF
:1011100000000000000000000000000000000000CF
:1011200000000000000000000000000000000000BF
:1011300000000000000000000000000000000000AF
:10114000000000000000000000000000000000009F
:10115000000000000000000000000000000000008F
:10116000000000000000000000000000000000007F
:10117000000000000000000000000000000000006F
:10118000000000000000000000000000000000005F
:10119000000000000000000000000000000000004F
:1011A000000000000000000000000000000000003F
:1011B0002D2D2D2D2D2D2D2D2D2D2D2D2D2D2D2D5F
:1011C0002D2D2D2D2D2D2D2D2D2D2D2D2D2D2D2D4F
:1011D0002D2D2D2D2D2D2D2D2D2D2D2D2D2D2D2D3F
:1011E0002D2D2D2D2D2D2D2D2D2D2D2D2D2D2D2D2F
:1011F0002D2D2D2D2D2D2D2D2D2D2D2D2D2D2D2D1F
:101200002D2D2D2D2D2D2D2D2D2D2D2D2D2D2D2D0E
:101210002D2D2D2D2D0A00000000000000000000E3
:1012200000000000000000000000000000000000BE
:1012300000000000000000000000000000000000AE
:10124000000000000000000000000000000000009E
:10125000000000000000000000000000000000008E
:10126000000000000000000000000000000000007E
:10127000000000000000000000000000000000006E
:10128000000000000000000000000000000000005E
:10129000000000000000000000000000000000004E
:1012A000000000000000000000000000000000003E
:1012B0005344EFBDB6EFBDB0EFBE84EFBE9EE381F9
:1012C000AEE4B8ADE381AB5B46445F494E5D2C5B59
:1012D00046445F4F55545D2C5B454D555DEFBE8CCC
:1012E000EFBDABEFBE99EFBE80EFBE9EE3818CE613
:1012F00096B0E3819FE381ABE587BAE69DA5E381E4
:10130000A6E38184E381BEE38199EFBDA10A0000D9
:1013100000000000000000000000000000000000CD
:1013200000000000000000000000000000000000BD
:1013300000000000000000000000000000000000AD
:10134000000000000000000000000000000000009D
:10135000000000000000000000000000000000008D
:10136000000000000000000000000000000000007D
:10137000000000000000000000000000000000006D
:10138000000000000000000000000000000000005D
:10139000000000000000000000000000000000004D
:1013A000000000000000000000000000000000003D
:1013B0005B46445F494E5DEFBE8CEFBDABEFBE991F
:1013C000EFBE80EFBE9EE381ABE4BDBFE38184E36B
:1013D000819FE381844644EFBDB2EFBE92EFBDB082
:1013E000EFBDBCEFBE9EEFBE8CEFBDA7EFBDB2EF71
:1013F000BE99E38292E585A5E3828CE381BEE38119
:1014000099EFBDA128E69C80E5A4A7E381A7EFBCE6
:1014100096EFBC94E5808BE585A5E3828AE381BEE7
:10142000E38199EFBDA1290A00000000000000003F
:1014300000000000000000000000000000000000AC
:10144000000000000000000000000000000000009C
:10145000000000000000000000000000000000008C
:10146000000000000000000000000000000000007C
:10147000000000000000000000000000000000006C
:10148000000000000000000000000000000000005C
:10149000000000000000000000000000000000004C
:1014A000000000000000000000000000000000003C
:1014B0005B46445F4F55545DEFBE8CEFBDABEFBE56
:1014C00099EFBE80EFBE9EE381AFE4BFAEE6ADA371
:1014D000E38197E3819F4644EFBDB2EFBE92EFBD3B
:1014E000B0EFBDBCEFBE9EEFBE8CEFBDA7EFBDB2AF
:1014F000EFBE99E38292E58F96E587BAE38199E39F
:1015000081AEE381ABE4BDBFE38184E381BEE381CF
:1015100099EFBDA10A0000000000000000000000DB
:1015200000000000000000000000000000000000BB
:1015300000000000000000000000000000000000AB
:10154000000000000000000000000000000000009B
:10155000000000000000000000000000000000008B
:10156000000000000000000000000000000000007B
:10157000000000000000000000000000000000006B
:10158000000000000000000000000000000000005B
:10159000000000000000000000000000000000004B
:1015A000000000000000000000000000000000003B
:1015B0005B454D555DEFBE8CEFBDABEFBE99EFBE09
:1015C00080EFBE9EE381ABE381AFEFBDBCEFBDBD5D
:1015D000EFBE83EFBE91E381ABE5BF85E8A681E373
:1015E00081AAEFBE8CEFBDA7EFBDB2EFBE99E3813C
:1015F0008CE585A5E381A3E381A6E38184E381BE35
:10160000E38199EFBDA10A00000000000000000086
:1016100000000000000000000000000000000000CA
:1016200000000000000000000000000000000000BA
:1016300000000000000000000000000000000000AA
:10164000000000000000000000000000000000009A
:10165000000000000000000000000000000000008A
:10166000000000000000000000000000000000007A
:10167000000000000000000000000000000000006A
:10168000000000000000000000000000000000005A
:10169000000000000000000000000000000000004A
:1016A000000000000000000000000000000000003A
:1016B0000A00000000000000000000000000000020
:1016C000000000000000000000000000000000001A
:1016D000000000000000000000000000000000000A
:1016E00000000000000000000000000000000000FA
:1016F00000000000000000000000000000000000EA
:1017000000000000000000000000000000000000D9
:1017100000000000000000000000000000000000C9
:1017200000000000000000000000000000000000B9
:1017300000000000000000000000000000000000A9
:101740000000000000000000000000000000000099
:101750000000000000000000000000000000000089
:101760000000000000000000000000000000000079
:101770000000000000000000000000000000000069
:101780000000000000000000000000000000000059
:101790000000000000000000000000000000000049
:1017A0000000000000000000000000000000000039
:1017B000E4BDBFE38188E3828B4644EFBDB2EFBE58
:1017C00092EFBDB0EFBDBCEFBE9EEFBE8CEFBDA7EC
:1017D000EFBDB2EFBE99E5BDA2E5BC8FE381AFE3FB
:1017E0008081E68BA1E5BCB5E5AD905B4438385D02
:1017F00020E381A8E38081EFBE8CEFBE9FEFBE9A0D
:10180000EFBDB0EFBE9DEFBDB2EFBE92EFBDB0EF4A
:10181000BDBCEFBE9E28E68BA1E5BCB5E5AD905BF7
:1018200044534B5D5B494D475DE7AD8929E381A793
:10183000E38199EFBDA10A00000000000000000054
:101840000000000000000000000000000000000098
:101850000000000000000000000000000000000088
:101860000000000000000000000000000000000078
:101870000000000000000000000000000000000068
:101880000000000000000000000000000000000058
:101890000000000000000000000000000000000048
:1018A0000000000000000000000000000000000038
:1018B000283144203335EFBE84EFBE97EFBDAFEF44
:1018C000BDB829283144203430EFBE84EFBE97EFF5
:1018D000BDAFEFBDB829283244203830EFBE84EFC9
:1018E000BE97EFBDAFEFBDB829E381ABE5AFBEE575
:1018F000BF9CE38197E381A6E38184E381BEE3811A
:1019000099EFBDA10A0000000000000000000000E7
:1019100000000000000000000000000000000000C7
:1019200000000000000000000000000000000000B7
:1019300000000000000000000000000000000000A7
:101940000000000000000000000000000000000097
:101950000000000000000000000000000000000087
:101960000000000000000000000000000000000077
:101970000000000000000000000000000000000067
:101980000000000000000000000000000000000057
:101990000000000000000000000000000000000047
:1019A0000000000000000000000000000000000037
:1019B000283144203335EFBE84EFBE97EFBDAFEF43
:1019C000BDB829203D203335EFBE84EFBE97EFBD73
:1019D000AFEFBDB8207820E78987E99DA220782065
:1019E0003136EFBDBEEFBDB8EFBE80207820323576
:1019F0003620627974650A000000000000000000D3
:101A000000000000000000000000000000000000D6
:101A100000000000000000000000000000000000C6
:101A200000000000000000000000000000000000B6
:101A300000000000000000000000000000000000A6
:101A40000000000000000000000000000000000096
:101A50000000000000000000000000000000000086
:101A60000000000000000000000000000000000076
:101A70000000000000000000000000000000000066
:101A80000000000000000000000000000000000056
:101A90000000000000000000000000000000000046
:101AA0000000000000000000000000000000000036
:101AB000283144203430EFBE84EFBE97EFBDAFEF46
:101AC000BDB829203D203430EFBE84EFBE97EFBD76
:101AD000AFEFBDB8207820E78987E99DA220782064
:101AE0003136EFBDBEEFBDB8EFBE80207820323575
:101AF0003620627974650A000000000000000000D2
:101B000000000000000000000000000000000000D5
:101B100000000000000000000000000000000000C5
:101B200000000000000000000000000000000000B5
:101B300000000000000000000000000000000000A5
:101B40000000000000000000000000000000000095
:101B50000000000000000000000000000000000085
:101B60000000000000000000000000000000000075
:101B70000000000000000000000000000000000065
:101B80000000000000000000000000000000000055
:101B90000000000000000000000000000000000045
:101BA0000000000000000000000000000000000035
:101BB000283244203830EFBE84EFBE97EFBDAFEF40
:101BC000BDB829203D203430EFBE84EFBE97EFBD75
:101BD000AFEFBDB8207820E4B8A1E99DA22078201D
:101BE0003136EFBDBEEFBDB8EFBE80207820323574
:101BF0003620627974650A000000000000000000D1
:101C000000000000000000000000000000000000D4
:101C100000000000000000000000000000000000C4
:101C200000000000000000000000000000000000B4
:101C300000000000000000000000000000000000A4
:101C40000000000000000000000000000000000094
:101C50000000000000000000000000000000000084
:101C60000000000000000000000000000000000074
:101C70000000000000000000000000000000000064
:101C80000000000000000000000000000000000054
:101C90000000000000000000000000000000000044
:101CA0000000000000000000000000000000000034
:101CB0005B6438385D2020202020283144203335D3
:101CC000EFBE84EFBE97EFBDAFEFBDB829E381AFA4
:101CD000E38081EFBE8CEFBDA7EFBDB2EFBE99EF01
:101CE000BDBBEFBDB2EFBDBDEFBE9E3A3135304B4F
:101CF000422820313533303038206279746520290C
:101D0000E381A7E38199EFBDA10A00000000000074
:101D100000000000000000000000000000000000C3
:101D200000000000000000000000000000000000B3
:101D300000000000000000000000000000000000A3
:101D40000000000000000000000000000000000093
:101D50000000000000000000000000000000000083
:101D60000000000000000000000000000000000073
:101D70000000000000000000000000000000000063
:101D80000000000000000000000000000000000053
:101D90000000000000000000000000000000000043
:101DA0000000000000000000000000000000000033
:101DB0005B6438385D2020202020283144203430D6
:101DC000EFBE84EFBE97EFBDAFEFBDB829E381AFA3
:101DD000E38081EFBE8CEFBDA7EFBDB2EFBE99EF00
:101DE000BDBBEFBDB2EFBDBDEFBE9E3A3137314B4B
:101DF00042282031373437363820627974652029FB
:101E0000E381A7E38199EFBDA10A00000000000073
:101E100000000000000000000000000000000000C2
:101E200000000000000000000000000000000000B2
:101E300000000000000000000000000000000000A2
:101E40000000000000000000000000000000000092
:101E50000000000000000000000000000000000082
:101E60000000000000000000000000000000000072
:101E70000000000000000000000000000000000062
:101E80000000000000000000000000000000000052
:101E90000000000000000000000000000000000042
:101EA0000000000000000000000000000000000032
:101EB0005B6438385D2020202020283244203830D0
:101EC000EFBE84EFBE97EFBDAFEFBDB829E381AFA2
:101ED000E38081EFBE8CEFBDA7EFBDB2EFBE99EFFF
:101EE000BDBBEFBDB2EFBDBDEFBE9E3A3334314B4B
:101EF00042282033343838343820627974652029F8
:101F0000E381A7E38199EFBDA10A00000000000072
:101F100000000000000000000000000000000000C1
:101F200000000000000000000000000000000000B1
:101F300000000000000000000000000000000000A1
:101F40000000000000000000000000000000000091
:101F50000000000000000000000000000000000081
:101F60000000000000000000000000000000000071
:101F70000000000000000000000000000000000061
:101F80000000000000000000000000000000000051
:101F90000000000000000000000000000000000041
:101FA0000000000000000000000000000000000031
:101FB000EFBE8CEFBE9FEFBE9AEFBDB0EFBE9DEFC0
:101FC000BDB2EFBE92EFBDB0EFBDBCEFBE9E2831FB
:101FD00044203335EFBE84EFBE97EFBDAFEFBDB801
:101FE00029E381AFE38081EFBE8CEFBDA7EFBDB2E7
:101FF000EFBE99EFBDBBEFBDB2EFBDBDEFBE9E3AE8
:102000003134304B4228203134333336302062793A
:1020100074652029E381A7E38199EFBDA10A00003F
:1020200000000000000000000000000000000000B0
:1020300000000000000000000000000000000000A0
:102040000000000000000000000000000000000090
:102050000000000000000000000000000000000080
:102060000000000000000000000000000000000070
:102070000000000000000000000000000000000060
:102080000000000000000000000000000000000050
:102090000000000000000000000000000000000040
:1020A0000000000000000000000000000000000030
:1020B000EFBE8CEFBE9FEFBE9AEFBDB0EFBE9DEFBF
:1020C000BDB2EFBE92EFBDB0EFBDBCEFBE9E2831FA
:1020D00044203430EFBE84EFBE97EFBDAFEFBDB804
:1020E00029E381AFE38081EFBE8CEFBDA7EFBDB2E6
:1020F000EFBE99EFBDBBEFBDB2EFBDBDEFBE9E3AE7
:102100003136304B42282031363338343020627932
:1021100074652029E381A7E38199EFBDA10A00003E
:1021200000000000000000000000000000000000AF
:10213000000000000000000000000000000000009F
:10214000000000000000000000000000000000008F
:10215000000000000000000000000000000000007F
:10216000000000000000000000000000000000006F
:10217000000000000000000000000000000000005F
:10218000000000000000000000000000000000004F
:10219000000000000000000000000000000000003F
:1021A000000000000000000000000000000000002F
:1021B000EFBE8CEFBE9FEFBE9AEFBDB0EFBE9DEFBE
:1021C000BDB2EFBE92EFBDB0EFBDBCEFBE9E2832F8
:1021D00044203830EFBE84EFBE97EFBDAFEFBDB8FF
:1021E00029E381AFE38081EFBE8CEFBDA7EFBDB2E5
:1021F000EFBE99EFBDBBEFBDB2EFBDBDEFBE9E3AE6
:102200003332304B4228203332373638302062792F
:1022100074652029E381A7E38199EFBDA10A00003D
:1022200000000000000000000000000000000000AE
:10223000000000000000000000000000000000009E
:10224000000000000000000000000000000000008E
:10225000000000000000000000000000000000007E
:10226000000000000000000000000000000000006E
:10227000000000000000000000000000000000005E
:10228000000000000000000000000000000000004E
:10229000000000000000000000000000000000003E
:1022A000000000000000000000000000000000002E
:1022B000EFBE8CEFBDA7EFBDB2EFBE99EFBDBBEF98
:1022C000BDB2EFBDBDEFBE9EE3818CE380813120C6
:1022D00062797465E381A7E38282E98195E381866F
:1022E000E381A8EFBDBCEFBDBDEFBE83EFBE91E3C0
:1022F00081AFE8AA8DE8AD98E38197E381BEE381E1
:102300009BE38293EFBDA10A0000000000000000E3
:1023100000000000000000000000000000000000BD
:1023200000000000000000000000000000000000AD
:10233000000000000000000000000000000000009D
:10234000000000000000000000000000000000008D
:10235000000000000000000000000000000000007D
:10236000000000000000000000000000000000006D
:10237000000000000000000000000000000000005D
:10238000000000000000000000000000000000004D
:10239000000000000000000000000000000000003D
:1023A000000000000000000000000000000000002D
:1023B0005B46445F494E5DEFBE8CEFBDABEFBE990F
:1023C000EFBE80EFBE9EE381AB4644EFBDB2EFBEF1
:1023D00092EFBDB0EFBDBCEFBE9EEFBE8CEFBDA7D0
:1023E000EFBDB2EFBE99E38292E585A5E3828CE36F
:1023F000828BE5898DE381ABE38081EFBDB4EFBDD6
:10240000B8EFBDBDEFBE8CEFBE9FEFBE9BEFBDB082
:10241000EFBE97E381A7EFBE8CEFBE9FEFBE9BEFB1
:10242000BE8AEFBE9FEFBE83EFBDA8E38292E8A60F
:102430008BE381A6E7A2BAE8AA8DE38197E381A6A0
:10244000E4B88BE38195E38184EFBDA10A0000002D
:10245000000000000000000000000000000000007C
:10246000000000000000000000000000000000006C
:10247000000000000000000000000000000000005C
:10248000000000000000000000000000000000004C
:10249000000000000000000000000000000000003C
:1024A000000000000000000000000000000000002C
:1024B0000A00000000000000000000000000000012
:1024C000000000000000000000000000000000000C
:1024D00000000000000000000000000000000000FC
:1024E00000000000000000000000000000000000EC
:1024F00000000000000000000000000000000000DC
:1025000000000000000000000000000000000000CB
:1025100000000000000000000000000000000000BB
:1025200000000000000000000000000000000000AB
:10253000000000000000000000000000000000009B
:10254000000000000000000000000000000000008B
:10255000000000000000000000000000000000007B
:10256000000000000000000000000000000000006B
:10257000000000000000000000000000000000005B
:10258000000000000000000000000000000000004B
:10259000000000000000000000000000000000003B
:1025A000000000000000000000000000000000002B
:1025B000EFBE8CEFBDA7EFBDB2EFBE99E5908DE306
:1025C00081AFE38081382B332838E69687E5AD97D5
:1025D000202B20272E27202B20E68BA1E5BCB5E55C
:1025E000AD90285B4438385D5B44534B5D5B494D8F
:1025F000475DE7AD892929E381A7E38199EFBDA173
:102600000A000000000000000000000000000000C0
:1026100000000000000000000000000000000000BA
:1026200000000000000000000000000000000000AA
:10263000000000000000000000000000000000009A
:10264000000000000000000000000000000000008A
:10265000000000000000000000000000000000007A
:10266000000000000000000000000000000000006A
:10267000000000000000000000000000000000005A
:10268000000000000000000000000000000000004A
:10269000000000000000000000000000000000003A
:1026A000000000000000000000000000000000002A
:1026B0005B46445F494E5DEFBE8CEFBDABEFBE990C
:1026C000EFBE80EFBE9EE58685E381ABEFBE8CEF6B
:1026D000BDABEFBE99EFBE80EFBE9EE38292E4BD3C
:1026E0009CE381A3E381A6E38282EFBDBCEFBDBD85
:1026F000EFBE83EFBE91E381AFE8AA8DE8AD98E32A
:102700008197E381BEE3819BE38293EFBDA10A0041
:1027100000000000000000000000000000000000B9
:1027200000000000000000000000000000000000A9
:102730000000000000000000000000000000000099
:102740000000000000000000000000000000000089
:102750000000000000000000000000000000000079
:102760000000000000000000000000000000000069
:102770000000000000000000000000000000000059
:102780000000000000000000000000000000000049
:102790000000000000000000000000000000000039
:1027A0000000000000000000000000000000000029
:1027B0000A0000000000000000000000000000000F
:1027C0000000000000000000000000000000000009
:1027D00000000000000000000000000000000000F9
:1027E00000000000000000000000000000000000E9
:1027F00000000000000000000000000000000000D9
:1028000000000000000000000000000000000000C8
:1028100000000000000000000000000000000000B8
:1028200000000000000000000000000000000000A8
:102830000000000000000000000000000000000098
:102840000000000000000000000000000000000088
:102850000000000000000000000000000000000078
:102860000000000000000000000000000000000068
:102870000000000000000000000000000000000058
:102880000000000000000000000000000000000048
:102890000000000000000000000000000000000038
:1028A0000000000000000000000000000000000028
:1028B0005B46445F494E5DEFBE8CEFBDABEFBE990A
:1028C000EFBE80EFBE9EE381ABE7A9BAE381AE46DF
:1028D00044EFBDB2EFBE92EFBDB0EFBDBCEFBE9E08
:1028E000EFBE8CEFBDA7EFBDB2EFBE99E3818CE5E3
:1028F00087BAE69DA5E381A6E38184E381BEE381F7
:1029000099EFBDA10A0000000000000000000000D7
:1029100000000000000000000000000000000000B7
:1029200000000000000000000000000000000000A7
:102930000000000000000000000000000000000097
:102940000000000000000000000000000000000087
:102950000000000000000000000000000000000077
:102960000000000000000000000000000000000067
:102970000000000000000000000000000000000057
:102980000000000000000000000000000000000047
:102990000000000000000000000000000000000037
:1029A0000000000000000000000000000000000027
:1029B0005B574B3144303030302E494D475DE38119
:1029C000AFEFBE8CEFBE9FEFBE9AEFBDB0EFBE9DE6
:1029D000EFBDB2EFBE92EFBDB0EFBDBCEFBE9E2823
:1029E0003144203335EFBE84EFBE97EFBDAFEFBD6E
:1029F000B829E38292E3808C4E36302DE68BA1E538
:102A0000BCB54241534943E3808DE381A7E69BB8BF
:102A1000E8BEBCE38281E3828BE38288E38186E3C4
:102A200081ABEFBE8CEFBDABEFBDB0EFBE8FEFBDA6
:102A3000AFEFBE84E6B888E381A7E38199EFBDA13B
:102A40000A0000000000000000000000000000007C
:102A50000000000000000000000000000000000076
:102A60000000000000000000000000000000000066
:102A70000000000000000000000000000000000056
:102A80000000000000000000000000000000000046
:102A90000000000000000000000000000000000036
:102AA0000000000000000000000000000000000026
:102AB0005B574B3244303030302E494D475DE38117
:102AC000AFEFBE8CEFBE9FEFBE9AEFBDB0EFBE9DE5
:102AD000EFBDB2EFBE92EFBDB0EFBDBCEFBE9E2822
:102AE0003244203830EFBE84EFBE97EFBDAFEFBD6C
:102AF000B829E38292E3808C4E2D4241534943280A
:102B00004449534B20424153494329E3808DE3819B
:102B1000A7E69BB8E8BEBCE38281E3828BE38288B0
:102B2000E38186E381ABEFBE8CEFBDABEFBDB0EFD1
:102B3000BE8FEFBDAFEFBE84E6B888E381A7E38127
:102B400099EFBDA10A000000000000000000000095
:102B50000000000000000000000000000000000075
:102B60000000000000000000000000000000000065
:102B70000000000000000000000000000000000055
:102B80000000000000000000000000000000000045
:102B90000000000000000000000000000000000035
:102BA0000000000000000000000000000000000025
:102BB000E7A9BAE381AE4644EFBDB2EFBE92EFBDE6
:102BC000B0EFBDBCEFBE9EEFBE8CEFBDA7EFBDB2B8
:102BD000EFBE99E381AFEFBDBAEFBE8BEFBE9FEFC3
:102BE000BDB0E38197E381A6E4BDBFE381A3E381A8
:102BF000A6E4B88BE38195E38184EFBDA10A0000D0
:102C000000000000000000000000000000000000C4
:102C100000000000000000000000000000000000B4
:102C200000000000000000000000000000000000A4
:102C30000000000000000000000000000000000094
:102C40000000000000000000000000000000000084
:102C50000000000000000000000000000000000074
:102C60000000000000000000000000000000000064
:102C70000000000000000000000000000000000054
:102C80000000000000000000000000000000000044
:102C90000000000000000000000000000000000034
:102CA0000000000000000000000000000000000024
:102CB0000A0000000000000000000000000000000A
:102CC0000000000000000000000000000000000004
:102CD00000000000000000000000000000000000F4
:102CE00000000000000000000000000000000000E4
:102CF00000000000000000000000000000000000D4
:102D000000000000000000000000000000000000C3
:102D100000000000000000000000000000000000B3
:102D200000000000000000000000000000000000A3
:102D30000000000000000000000000000000000093
:102D40000000000000000000000000000000000083
:102D50000000000000000000000000000000000073
:102D60000000000000000000000000000000000063
:102D70000000000000000000000000000000000053
:102D80000000000000000000000000000000000043
:102D90000000000000000000000000000000000033
:102DA0000000000000000000000000000000000023
:102DB0002D2D2D2D2D2D2D2D2D2D2D2D2D2D2D2D43
:102DC0002D2D2D2D2D2D2D2D2D2D2D2D2D2D2D2D33
:102DD0002D2D2D2D2D2D2D2D2D2D2D2D2D2D2D2D23
:102DE0002D2D2D2D2D2D2D2D2D2D2D2D2D2D2D2D13
:102DF0002D2D2D2D2D2D2D2D2D2D2D2D2D2D2D2D03
:102E00002D2D2D2D2D2D2D2D2D2D2D2D2D2D2D2DF2
:102E10002D2D2D2D2D0A00000000000000000000C7
:102E200000000000000000000000000000000000A2
:102E30000000000000000000000000000000000092
:102E40000000000000000000000000000000000082
:102E50000000000000000000000000000000000072
:102E60000000000000000000000000000000000062
:102E70000000000000000000000000000000000052
:102E80000000000000000000000000000000000042
:102E90000000000000000000000000000000000032
:102EA0000000000000000000000000000000000022
:102EB000E6938DE4BD9CE696B9E6B395E381ABE37A
:102EC00081A4E38184E381A62853657269616C293A
:102ED0000A000000000000000000000000000000E8
:102EE00000000000000000000000000000000000E2
:102EF00000000000000000000000000000000000D2
:102F000000000000000000000000000000000000C1
:102F100000000000000000000000000000000000B1
:102F200000000000000000000000000000000000A1
:102F30000000000000000000000000000000000091
:102F40000000000000000000000000000000000081
:102F50000000000000000000000000000000000071
:102F60000000000000000000000000000000000061
:102F70000000000000000000000000000000000051
:102F80000000000000000000000000000000000041
:102F90000000000000000000000000000000000031
:102FA0000000000000000000000000000000000021
:102FB0002D2D2D2D2D2D2D2D2D2D2D2D2D2D2D2D41
:102FC0002D2D2D2D2D2D2D2D2D2D2D2D2D2D2D2D31
:102FD0002D2D2D2D2D2D2D2D2D2D2D2D2D2D2D2D21
:102FE0002D2D2D2D2D2D2D2D2D2D2D2D2D2D2D2D11
:102FF0002D2D2D2D2D2D2D2D2D2D2D2D2D2D2D2D01
:103000002D2D2D2D2D2D2D2D2D2D2D2D2D2D2D2DF0
:103010002D2D2D2D2D0A00000000000000000000C5
:1030200000000000000000000000000000000000A0
:103030000000000000000000000000000000000090
:103040000000000000000000000000000000000080
:103050000000000000000000000000000000000070
:103060000000000000000000000000000000000060
:103070000000000000000000000000000000000050
:103080000000000000000000000000000000000040
:103090000000000000000000000000000000000030
:1030A0000000000000000000000000000000000020
:1030B000313A5B464444EFBDB4EFBE90EFBDADEF97
:1030C000BE9AEFBDB0EFBE8020EFBDB7EFBE84EF7C
:1030D000BE9EEFBDB35D3A20464444EFBDB4EFBEA3
:1030E00090EFBDADEFBE9AEFBDB0EFBE80E3829230
:1030F000E8B5B7E58B95E38197E381BEE38199EF6E
:10310000BDA10A0000000000000000000000000057
:1031100000000000000000000000000000000000AF
:10312000000000000000000000000000000000009F
:10313000000000000000000000000000000000008F
:10314000000000000000000000000000000000007F
:10315000000000000000000000000000000000006F
:10316000000000000000000000000000000000005F
:10317000000000000000000000000000000000004F
:10318000000000000000000000000000000000003F
:10319000000000000000000000000000000000002F
:1031A000000000000000000000000000000000001F
:1031B0000A00000000000000000000000000000005
:1031C00000000000000000000000000000000000FF
:1031D00000000000000000000000000000000000EF
:1031E00000000000000000000000000000000000DF
:1031F00000000000000000000000000000000000CF
:1032000000000000000000000000000000000000BE
:1032100000000000000000000000000000000000AE
:10322000000000000000000000000000000000009E
:10323000000000000000000000000000000000008E
:10324000000000000000000000000000000000007E
:10325000000000000000000000000000000000006E
:10326000000000000000000000000000000000005E
:10327000000000000000000000000000000000004E
:10328000000000000000000000000000000000003E
:10329000000000000000000000000000000000002E
:1032A000000000000000000000000000000000001E
:1032B000323A5B4644EFBDB2EFBE92EFBDB0EFBD18
:1032C000BCEFBE9E20EFBDBBEFBDBCEFBDB6EFBDFA
:1032D000B45D20203A204644EFBE84EFBE9EEFBE90
:1032E00097EFBDB2EFBE8CEFBE9EE381AE4644EFDA
:1032F000BDB2EFBE92EFBDB0EFBDBCEFBE9EEFBE64
:103300008CEFBDA7EFBDB2EFBE99E38292E5B7AEF9
:10331000E69BBFE38188E381BEE38199EFBDA10A0B
:10332000000000000000000000000000000000009D
:10333000000000000000000000000000000000008D
:10334000000000000000000000000000000000007D
:10335000000000000000000000000000000000006D
:10336000000000000000000000000000000000005D
:10337000000000000000000000000000000000004D
:10338000000000000000000000000000000000003D
:10339000000000000000000000000000000000002D
:1033A000000000000000000000000000000000001D
:1033B000202020202020202020202020202020200D
:1033C000202020205B2A2A2A2A2A2A2A2A2E2A2A50
:1033D0002A5DE381AF4644EFBDB2EFBE92EFBDB0D0
:1033E000EFBDBCEFBE9EEFBE8CEFBDA7EFBDB2EF51
:1033F000BE99E3818CEFBDBEEFBDAFEFBE84E3812C
:1034000095E3828CE381A6E38184E381AAE381844E
:10341000E78AB6E6858BE38292E7A4BAE38197E375
:1034200081BEE38199EFBDA10A0000000000000009
:10343000000000000000000000000000000000008C
:10344000000000000000000000000000000000007C
:10345000000000000000000000000000000000006C
:10346000000000000000000000000000000000005C
:10347000000000000000000000000000000000004C
:10348000000000000000000000000000000000003C
:10349000000000000000000000000000000000002C
:1034A000000000000000000000000000000000001C
:1034B0000A00000000000000000000000000000002
:1034C00000000000000000000000000000000000FC
:1034D00000000000000000000000000000000000EC
:1034E00000000000000000000000000000000000DC
:1034F00000000000000000000000000000000000CC
:1035000000000000000000000000000000000000BB
:1035100000000000000000000000000000000000AB
:10352000000000000000000000000000000000009B
:10353000000000000000000000000000000000008B
:10354000000000000000000000000000000000007B
:10355000000000000000000000000000000000006B
:10356000000000000000000000000000000000005B
:10357000000000000000000000000000000000004B
:10358000000000000000000000000000000000003B
:10359000000000000000000000000000000000002B
:1035A000000000000000000000000000000000001B
:1035B000333A5BEFBE97EFBDB2EFBE84EFBE8CEF48
:1035C000BE9FEFBE9BEFBE83EFBDB8EFBE8420EF82
:1035D000BE8DEFBE9DEFBDBAEFBDB35D3A20464450
:1035E000EFBDB2EFBE92EFBDB0EFBDBCEFBE9EEF40
:1035F000BE8CEFBDA7EFBDB2EFBE99E381AEEFBECB
:1036000097EFBDB2EFBE84EFBE8CEFBE9FEFBE9BC7
:10361000EFBE83EFBDB8EFBE84E38292E68E9BE3FC
:103620008191E3819FE3828AE38081E5A496E3812F
:1036300097E3819FE3828AE38197E381BEE38199E7
:10364000EFBDA10A00000000000000000000000023
:10365000000000000000000000000000000000006A
:10366000000000000000000000000000000000005A
:10367000000000000000000000000000000000004A
:10368000000000000000000000000000000000003A
:10369000000000000000000000000000000000002A
:1036A000000000000000000000000000000000001A
:1036B000202020202020202020202020202020200A
:1036C000202020204644EFBDB2EFBE92EFBDB0EF08
:1036D000BDBCEFBE9EEFBE8CEFBDA7EFBDB2EFBE8F
:1036E00099E381AEE5889DE69C9FE78AB6E6858BE7
:1036F000E381A7E381AFE38081EFBE97EFBDB2EF37
:10370000BE84EFBE8CEFBE9FEFBE9BEFBE83EFBDCE
:10371000B8EFBE84E3818CE68E9BE3818BE381A3CB
:10372000E381A6E38184E381BEE38199EFBDA10A31
:103730000000000000000000000000000000000089
:103740000000000000000000000000000000000079
:103750000000000000000000000000000000000069
:103760000000000000000000000000000000000059
:103770000000000000000000000000000000000049
:103780000000000000000000000000000000000039
:103790000000000000000000000000000000000029
:1037A0000000000000000000000000000000000019
:1037B0000A000000000000000000000000000000FF
:1037C00000000000000000000000000000000000F9
:1037D00000000000000000000000000000000000E9
:1037E00000000000000000000000000000000000D9
:1037F00000000000000000000000000000000000C9
:1038000000000000000000000000000000000000B8
:1038100000000000000000000000000000000000A8
:103820000000000000000000000000000000000098
:103830000000000000000000000000000000000088
:103840000000000000000000000000000000000078
:103850000000000000000000000000000000000068
:103860000000000000000000000000000000000058
:103870000000000000000000000000000000000048
:103880000000000000000000000000000000000038
:103890000000000000000000000000000000000028
:1038A0000000000000000000000000000000000018
:1038B000343A5B4644EFBDB2EFBE92EFBDB0EFBD10
:1038C000BCEFBE9E20EFBDBCEFBDADEFBE82EFBE34
:1038D00098EFBDAEEFBDB85D3A205B46445F4F55F3
:1038E000545DEFBE8CEFBDABEFBE99EFBE80EFBE77
:1038F0009EE381ABE4BFAEE6ADA3E38195E3828CAA
:10390000E3819F4644EFBDB2EFBE92EFBDB0EFBD85
:10391000BCEFBE9EE3818CE587BAE58A9BE3819587
:10392000E3828CE381BEE38199EFBDA10A00000030
:103930000000000000000000000000000000000087
:103940000000000000000000000000000000000077
:103950000000000000000000000000000000000067
:103960000000000000000000000000000000000057
:103970000000000000000000000000000000000047
:103980000000000000000000000000000000000037
:103990000000000000000000000000000000000027
:1039A0000000000000000000000000000000000017
:1039B0002020202020202020202020202020202007
:1039C00020202020283144203335EFBE84EFBE97DD
:1039D000EFBDAFEFBDB829E381AE4644EFBDB2EF16
:1039E000BE92EFBDB0EFBDBCEFBE9EEFBE8CEFBD93
:1039F000A7EFBDB2EFBE99E381A73135E7A792E308
:103A00008081283244203830EFBE84EFBE97EFBD6E
:103A1000AFEFBDB829E381AE4644EFBDB2EFBE9231
:103A2000EFBDB0EFBDBCEFBE9EEFBE8CEFBDA7EF0C
:103A3000BDB2EFBE99E381A73330E7A792E68E9B34
:103A4000E3818BE3828AE381BEE38199EFBDA10A22
:103A50000000000000000000000000000000000066
:103A60000000000000000000000000000000000056
:103A70000000000000000000000000000000000046
:103A80000000000000000000000000000000000036
:103A90000000000000000000000000000000000026
:103AA0000000000000000000000000000000000016
:103AB0002020202020202020202020202020202006
:103AC000202020204644EFBDB2EFBE92EFBDB0EF04
:103AD000BDBCEFBE9EEFBE8CEFBDA7EFBDB2EFBE8B
:103AE00099E381ABEFBE9AEFBE84EFBE9B5043E3F8
:103AF000818BE38289E69BB8E8BEBCE381BFE381AA
:103B000097E3819FE5A0B4E59088E380815B454D14
:103B1000555DEFBE8CEFBDABEFBE99EFBE80EFBE43
:103B20009EE58685E381ABE5B7AEE58886EFBE838B
:103B3000EFBE9EEFBDB0EFBE80E3818CE4BD9CE3A1
:103B40008289E3828CE381BEE38199EFBDA10A0003
:103B50000000000000000000000000000000000065
:103B60000000000000000000000000000000000055
:103B70000000000000000000000000000000000045
:103B80000000000000000000000000000000000035
:103B90000000000000000000000000000000000025
:103BA0000000000000000000000000000000000015
:103BB0002020202020202020202020202020202005
:103BC000202020205B46445F494E5DEFBE8CEFBD58
:103BD000ABEFBE99EFBE80EFBE9EE381AE4644EFF1
:103BE000BDB2EFBE92EFBDB0EFBDBCEFBE9EEFBE6B
:103BF0008CEFBDA7EFBDB2EFBE99E381A85B454D49
:103C0000555DEFBE8CEFBDABEFBE99EFBE80EFBE52
:103C10009EE58685E381AEE5B7AEE58886EFBE8397
:103C2000EFBE9EEFBDB0EFBE80E381A7E4B880E3B6
:103C300081A4E381AE4644EFBDB2EFBE92EFBDB0CA
:103C4000EFBDBCEFBE9EEFBE8CEFBDA7EFBDB2EFE8
:103C5000BE99E381ABE688BBE38197E381BEE38154
:103C600099EFBDA10A000000000000000000000064
:103C70000000000000000000000000000000000044
:103C80000000000000000000000000000000000034
:103C90000000000000000000000000000000000024
:103CA0000000000000000000000000000000000014
:103CB0000A000000000000000000000000000000FA
:103CC00000000000000000000000000000000000F4
:103CD00000000000000000000000000000000000E4
:103CE00000000000000000000000000000000000D4
:103CF00000000000000000000000000000000000C4
:103D000000000000000000000000000000000000B3
:103D100000000000000000000000000000000000A3
:103D20000000000000000000000000000000000093
:103D30000000000000000000000000000000000083
:103D40000000000000000000000000000000000073
:103D50000000000000000000000000000000000063
:103D60000000000000000000000000000000000053
:103D70000000000000000000000000000000000043
:103D80000000000000000000000000000000000033
:103D90000000000000000000000000000000000023
:103DA0000000000000000000000000000000000013
:103DB00041726475696E6F494445E381AEEFBDBCE5
:103DC000EFBE98EFBDB1EFBE99EFBE93EFBE86EFA9
:103DD000BE80E38284EFBE80EFBDB0EFBE90EFBE49
:103DE00085EFBE99EFBDBFEFBE8CEFBE8428546552
:103DF0007261205465726DE7AD8929E381AFE3807C
:103E000081E9809AE4BFA1E9809FE5BAA6E38292A6
:103E1000313135323030627073E381ABE38197E347
:103E200081A6E4B88BE38195E38184EFBDA10A000C
:103E30000000000000000000000000000000000082
:103E40000000000000000000000000000000000072
:103E50000000000000000000000000000000000062
:103E60000000000000000000000000000000000052
:103E70000000000000000000000000000000000042
:103E80000000000000000000000000000000000032
:103E90000000000000000000000000000000000022
:103EA0000000000000000000000000000000000012
:103EB0000A000000000000000000000000000000F8
:103EC00000000000000000000000000000000000F2
:103ED00000000000000000000000000000000000E2
:103EE00000000000000000000000000000000000D2
:103EF00000000000000000000000000000000000C2
:103F000000000000000000000000000000000000B1
:103F100000000000000000000000000000000000A1
:103F20000000000000000000000000000000000091
:103F30000000000000000000000000000000000081
:103F40000000000000000000000000000000000071
:103F50000000000000000000000000000000000061
:103F60000000000000000000000000000000000051
:103F70000000000000000000000000000000000041
:103F80000000000000000000000000000000000031
:103F90000000000000000000000000000000000021
:103FA0000000000000000000000000000000000011
:103FB0002D2D2D2D2D2D2D2D2D2D2D2D2D2D2D2D31
:103FC0002D2D2D2D2D2D2D2D2D2D2D2D2D2D2D2D21
:103FD0002D2D2D2D2D2D2D2D2D2D2D2D2D2D2D2D11
:103FE0002D2D2D2D2D2D2D2D2D2D2D2D2D2D2D2D01
:103FF0002D2D2D2D2D2D2D2D2D2D2D2D2D2D2D2DF1
:104000002D2D2D2D2D2D2D2D2D2D2D2D2D2D2D2DE0
:104010002D2D2D2D2D0A00000000000000000000B5
:104020000000000000000000000000000000000090
:104030000000000000000000000000000000000080
:104040000000000000000000000000000000000070
:104050000000000000000000000000000000000060
:104060000000000000000000000000000000000050
:104070000000000000000000000000000000000040
:104080000000000000000000000000000000000030
:104090000000000000000000000000000000000020
:1040A0000000000000000000000000000000000010
:1040B000E6938DE4BD9CE696B9E6B395E381ABE368
:1040C00081A4E38184E381A628546F75636820533B
:1040D000637265656E290A000000000000000000A0
:1040E00000000000000000000000000000000000D0
:1040F00000000000000000000000000000000000C0
:1041000000000000000000000000000000000000AF
:10411000000000000000000000000000000000009F
:10412000000000000000000000000000000000008F
:10413000000000000000000000000000000000007F
:10414000000000000000000000000000000000006F
:10415000000000000000000000000000000000005F
:10416000000000000000000000000000000000004F
:10417000000000000000000000000000000000003F
:10418000000000000000000000000000000000002F
:10419000000000000000000000000000000000001F
:1041A000000000000000000000000000000000000F
:1041B0002D2D2D2D2D2D2D2D2D2D2D2D2D2D2D2D2F
:1041C0002D2D2D2D2D2D2D2D2D2D2D2D2D2D2D2D1F
:1041D0002D2D2D2D2D2D2D2D2D2D2D2D2D2D2D2D0F
:1041E0002D2D2D2D2D2D2D2D2D2D2D2D2D2D2D2DFF
:1041F0002D2D2D2D2D2D2D2D2D2D2D2D2D2D2D2DEF
:104200002D2D2D2D2D2D2D2D2D2D2D2D2D2D2D2DDE
:104210002D2D2D2D2D0A00000000000000000000B3
:10422000000000000000000000000000000000008E
:10423000000000000000000000000000000000007E
:10424000000000000000000000000000000000006E
:10425000000000000000000000000000000000005E
:10426000000000000000000000000000000000004E
:10427000000000000000000000000000000000003E
:10428000000000000000000000000000000000002E
:10429000000000000000000000000000000000001E
:1042A000000000000000000000000000000000000E
:1042B000E38090E382A8E3839FE383A5E383ACE3F9
:1042C00083BCE382BFE38091202020203A20464433
:1042D00044EFBDB4EFBE90EFBDADEFBE9AEFBDB001
:1042E000EFBE80E38292E8B5B7E58B95E38197E373
:1042F00081BEE38199EFBDA10A000000000000002B
:1043000000000000000000000000000000000000AD
:10431000000000000000000000000000000000009D
:10432000000000000000000000000000000000008D
:10433000000000000000000000000000000000007D
:10434000000000000000000000000000000000006D
:10435000000000000000000000000000000000005D
:10436000000000000000000000000000000000004D
:10437000000000000000000000000000000000003D
:10438000000000000000000000000000000000002D
:10439000000000000000000000000000000000001D
:1043A000000000000000000000000000000000000D
:1043B00020202020202020202020202020202020FD
:1043C0002020202020204644EFBE84EFBE9EEFBE7A
:1043D00097EFBDB2EFBE8CEFBE9EE381AEE794BB1C
:1043E000E5838FE381ABE5A489E3828FE3828AE3EF
:1043F0008081EFBDB1EFBDB8EFBDBEEFBDBDEFBE7B
:1044000097EFBE9DEFBE8CEFBE9FE3818CE782B934
:10441000E6BB85E38197E38081E9A786E58B95E993
:104420009FB3E3818CE38197E381BEE38199EFBD84
:10443000A10A0000000000000000000000000000D1
:10444000000000000000000000000000000000006C
:10445000000000000000000000000000000000005C
:10446000000000000000000000000000000000004C
:10447000000000000000000000000000000000003C
:10448000000000000000000000000000000000002C
:10449000000000000000000000000000000000001C
:1044A000000000000000000000000000000000000C
:1044B0000A000000000000000000000000000000F2
:1044C00000000000000000000000000000000000EC
:1044D00000000000000000000000000000000000DC
:1044E00000000000000000000000000000000000CC
:1044F00000000000000000000000000000000000BC
:1045000000000000000000000000000000000000AB
:10451000000000000000000000000000000000009B
:10452000000000000000000000000000000000008B
:10453000000000000000000000000000000000007B
:10454000000000000000000000000000000000006B
:10455000000000000000000000000000000000005B
:10456000000000000000000000000000000000004B
:10457000000000000000000000000000000000003B
:10458000000000000000000000000000000000002B
:10459000000000000000000000000000000000001B
:1045A000000000000000000000000000000000000B
:1045B000E38090EFBCA6EFBCA4E5B7AEE38197E340
:1045C000818BE38188E38091202020203A2046449B
:1045D000EFBE84EFBE9EEFBE97EFBDB2EFBE8CEF95
:1045E000BE9EE381AE4644EFBDB2EFBE92EFBDB0DA
:1045F000EFBDBCEFBE9EE38292E5B7AEE69BBFE3A4
:104600008188E381BEE38199EFBDA10A000000002B
:10461000000000000000000000000000000000009A
:10462000000000000000000000000000000000008A
:10463000000000000000000000000000000000007A
:10464000000000000000000000000000000000006A
:10465000000000000000000000000000000000005A
:10466000000000000000000000000000000000004A
:10467000000000000000000000000000000000003A
:10468000000000000000000000000000000000002A
:10469000000000000000000000000000000000001A
:1046A000000000000000000000000000000000000A
:1046B00020202020202020202020202020202020FA
:1046C0002020202020E38090E296B2E38091E380D6
:1046D00090E296BCE38091E381A74644EFBDB2EF40
:1046E000BE92EFBDB0EFBDBCEFBE9EEFBE8CEFBD86
:1046F000A7EFBDB2EFBE99E38292E981B8E381B33F
:10470000E38081E38090EFBCA6EFBCA4E5B7AEE305
:104710008197E3818BE38188E38091EFBE8EEFBECA
:104720009EEFBE80EFBE9DE38292E68ABCE3819756
:10473000E381BEE38199EFBDA10A00000000000003
:104740000000000000000000000000000000000069
:104750000000000000000000000000000000000059
:104760000000000000000000000000000000000049
:104770000000000000000000000000000000000039
:104780000000000000000000000000000000000029
:104790000000000000000000000000000000000019
:1047A0000000000000000000000000000000000009
:1047B00020202020202020202020202020202020F9
:1047C000202020202020E6ACA1E381ABE38090E212
:1047D00096B2E38091E38090E296BCE38091E3811E
:1047E000A74644EFBE84EFBE9EEFBE97EFBDB2EF8B
:1047F000BE8CEFBE9EE38292E981B8E381B3E38190
:10480000BEE38199EFBDA10A000000000000000096
:104810000000000000000000000000000000000098
:104820000000000000000000000000000000000088
:104830000000000000000000000000000000000078
:104840000000000000000000000000000000000068
:104850000000000000000000000000000000000058
:104860000000000000000000000000000000000048
:104870000000000000000000000000000000000038
:104880000000000000000000000000000000000028
:104890000000000000000000000000000000000018
:1048A0000000000000000000000000000000000008
:1048B00020202020202020202020202020202020F8
:1048C0002020202020E38090E5AE9FE8A18CE380AB
:1048D00091EFBE8EEFBE9EEFBE80EFBE9DE381A73F
:1048E000E5B7AEE69BBFE38188E38289E3828CE390
:1048F00081BEE38199EFBDA1E38090E4B8ADE6AD60
:10490000A2E38091EFBE8EEFBE9EEFBE80EFBE9D14
:10491000E381A7EFBDB7EFBDACEFBE9DEFBDBEEF2E
:10492000BE99E38195E3828CE381BEE38199EFBD7B
:10493000A10A0000000000000000000000000000CC
:104940000000000000000000000000000000000067
:104950000000000000000000000000000000000057
:104960000000000000000000000000000000000047
:104970000000000000000000000000000000000037
:104980000000000000000000000000000000000027
:104990000000000000000000000000000000000017
:1049A0000000000000000000000000000000000007
:1049B00020202020202020202020202020202020F7
:1049C0002020202020205B2A2A2A2A2A2A2A2A2E4E
:1049D0002A2A2A5DE381AF4644EFBDB2EFBE92EFD3
:1049E000BDB0EFBDBCEFBE9EEFBE8CEFBDA7EFBD6F
:1049F000B2EFBE99E3818CEFBDBEEFBDAFEFBE84D9
:104A0000E38195E3828CE381A6E38184E381AAE3D9
:104A10008184E78AB6E6858BE38292E7A4BAE381D4
:104A200097E381BEE38199EFBDA10A000000000079
:104A30000000000000000000000000000000000076
:104A40000000000000000000000000000000000066
:104A50000000000000000000000000000000000056
:104A60000000000000000000000000000000000046
:104A70000000000000000000000000000000000036
:104A80000000000000000000000000000000000026
:104A90000000000000000000000000000000000016
:104AA0000000000000000000000000000000000006
:104AB0000A000000000000000000000000000000EC
:104AC00000000000000000000000000000000000E6
:104AD00000000000000000000000000000000000D6
:104AE00000000000000000000000000000000000C6
:104AF00000000000000000000000000000000000B6
:104B000000000000000000000000000000000000A5
:104B10000000000000000000000000000000000095
:104B20000000000000000000000000000000000085
:104B30000000000000000000000000000000000075
:104B40000000000000000000000000000000000065
:104B50000000000000000000000000000000000055
:104B60000000000000000000000000000000000045
:104B70000000000000000000000000000000000035
:104B80000000000000000000000000000000000025
:104B90000000000000000000000000000000000015
:104BA0000000000000000000000000000000000005
:104BB00020202020202020202020202020202020F5
:104BC000202020202020EFBE9AEFBE84EFBE9B5015
:104BD00043E6938DE4BD9CE4B8ADE381AB4644E38A
:104BE00081AEE5B7AEE69BBFE38188E38292E381C5
:104BF00099E3828BE5A0B4E59088E3818CE3818220
:104C0000E3828AE381BEE38199EFBDA120E3819D28
:104C1000E381AEE69982E381AF464444E794BBE585
:104C2000838FE381AEE5AFBEE8B1A1EFBE84EFBEF6
:104C30009EEFBE97EFBDB2EFBE8CEFBE9EE38292B9
:104C4000E68ABCE38197E381BEE38199EFBDA10AC7
:104C50000000000000000000000000000000000054
:104C60000000000000000000000000000000000044
:104C70000000000000000000000000000000000034
:104C80000000000000000000000000000000000024
:104C90000000000000000000000000000000000014
:104CA0000000000000000000000000000000000004
:104CB00020202020202020202020202020202020F4
:104CC000202020202020EFBDB4EFBE90EFBDADEF3F
:104CD000BE9AEFBDB0EFBE80E381AFE7B582E4BA24
:104CE00086E38197E38081E68ABCE38195E3828C49
:104CF000E3819F31EFBD9E34E381AEEFBE84EFBE12
:104D00009EEFBE97EFBDB2EFBE8CEFBE9EE3818CEF
:104D1000E981B8E381B0E3828CE3819FE38090EF87
:104D2000BCA6EFBCA4E5B7AEE38197E3818BE3813A
:104D300088E38091E381AEE8A8ADE5AE9AE794BB45
:104D4000E99DA2E381ABE381AAE3828AE381BEE32A
:104D50008199EFBDA10A00000000000000000000E2
:104D60000000000000000000000000000000000043
:104D70000000000000000000000000000000000033
:104D80000000000000000000000000000000000023
:104D90000000000000000000000000000000000013
:104DA0000000000000000000000000000000000003
:104DB00020202020202020202020202020202020F3
:104DC000202020202020EFBE84EFBE9EEFBE97EF74
:104DD000BDB2EFBE8CEFBE9EE3818CE981B8E3816A
:104DE000B0E3828CE381A6E38184E381BEE3819911
:104DF000E381AEE381A7E38081E5BE8CE380814659
:104E000044EFBDB2EFBE92EFBDB0EFBDBCEFBE9EB2
:104E1000EFBE8CEFBDA7EFBDB2EFBE99E38292E982
:104E200081B8E68A9EE38197E38081E38090E5AED6
:104E30009FE8A18CE38091EFBE8EEFBE9EEFBE8017
:104E4000EFBE9DE381A7E5B7AEE69BBFE38188E3B4
:104E50008289E3828CE381BEE38199EFBDA10A00E0
:104E60000000000000000000000000000000000042
:104E70000000000000000000000000000000000032
:104E80000000000000000000000000000000000022
:104E90000000000000000000000000000000000012
:104EA0000000000000000000000000000000000002
:104EB00020202020202020202020202020202020F2
:104EC0002020202020E38090E382A8E3839FE383D7
:104ED000A5E383ACE383BCE382BFE38091EFBE8EA6
:104EE000EFBE9EEFBE80EFBE9DE38292E68ABCE3FA
:104EF0008197E38081464444EFBDB4EFBE90EFBD9F
:104F0000ADEFBE9AEFBDB0EFBE80E38292E8B5B7D9
:104F1000E58B95E38197E381BEE38199EFBDA12005
:104F2000EFBE9AEFBE84EFBE9B5043E381A7E7B686
:104F30009AE3818DE381AEE6938DE4BD9CE382929A
:104F4000E38197E381BEE38199EFBDA10A000000F0
:104F50000000000000000000000000000000000051
:104F60000000000000000000000000000000000041
:104F70000000000000000000000000000000000031
:104F80000000000000000000000000000000000021
:104F90000000000000000000000000000000000011
:104FA0000000000000000000000000000000000001
:104FB0000A000000000000000000000000000000E7
:104FC00000000000000000000000000000000000E1
:104FD00000000000000000000000000000000000D1
:104FE00000000000000000000000000000000000C1
:104FF00000000000000000000000000000000000B1
:1050000000000000000000000000000000000000A0
:105010000000000000000000000000000000000090
:105020000000000000000000000000000000000080
:105030000000000000000000000000000000000070
:105040000000000000000000000000000000000060
:105050000000000000000000000000000000000050
:105060000000000000000000000000000000000040
:105070000000000000000000000000000000000030
:105080000000000000000000000000000000000020
:105090000000000000000000000000000000000010
:1050A0000000000000000000000000000000000000
:1050B000E38090E383A9E382A4E38388E38397E317
:1050C00083ADE38386E382AFE38388E380913A2074
:1050D0004644EFBDB2EFBE92EFBDB0EFBDBCEFBE38
:1050E0009EEFBE8CEFBDA7EFBDB2EFBE99E381AEE0
:1050F000EFBE97EFBDB2EFBE84EFBE8CEFBE9FEF69
:10510000BE9BEFBE83EFBDB8EFBE84E38292E68E16
:105110009BE38191E3819FE3828AE38081E5A4960A
:10512000E38197E3819FE3828AE38197E381BEE392
:105130008199EFBDA10A00000000000000000000FE
:10514000000000000000000000000000000000005F
:10515000000000000000000000000000000000004F
:10516000000000000000000000000000000000003F
:10517000000000000000000000000000000000002F
:10518000000000000000000000000000000000001F
:10519000000000000000000000000000000000000F
:1051A00000000000000000000000000000000000FF
:1051B00020202020202020202020202020202020EF
:1051C0002020202020E38090E296B2E38091E380CB
:1051D00090E296BCE38091E381A74644EFBDB2EF35
:1051E000BE92EFBDB0EFBDBCEFBE9EEFBE8CEFBD7B
:1051F000A7EFBDB2EFBE99E38292E981B8E381B334
:10520000E38081E38090E383A9E382A4E38388E3DE
:105210008397E383ADE38386E382AFE38388E38010
:1052200091EFBE8EEFBE9EEFBE80EFBE9DE38292F9
:10523000E68ABCE38197E381BEE38199EFBDA10AD1
:10524000000000000000000000000000000000005E
:10525000000000000000000000000000000000004E
:10526000000000000000000000000000000000003E
:10527000000000000000000000000000000000002E
:10528000000000000000000000000000000000001E
:10529000000000000000000000000000000000000E
:1052A00000000000000000000000000000000000FE
:1052B00020202020202020202020202020202020EE
:1052C0002020202020E38090E5AE9FE8A18CE380A1
:1052D00091EFBE8EEFBE9EEFBE80EFBE9DE381A735
:1052E000EFBE97EFBDB2EFBE84EFBE8CEFBE9FEF77
:1052F000BE9BEFBE83EFBDB8EFBE84E3818CE58833
:1053000087E69BBFE38188E38289E3828CE381BEE9
:10531000E38199EFBDA1E38090E4B8ADE6ADA2E3EF
:105320008091EFBE8EEFBE9EEFBE80EFBE9DE3810B
:10533000A7EFBDB7EFBDACEFBE9DEFBDBEEFBE9911
:10534000E38195E3828CE381BEE38199EFBDA10AFD
:10535000000000000000000000000000000000004D
:10536000000000000000000000000000000000003D
:10537000000000000000000000000000000000002D
:10538000000000000000000000000000000000001D
:10539000000000000000000000000000000000000D
:1053A00000000000000000000000000000000000FD
:1053B00020202020202020202020202020202020ED
:1053C0002020202020204644EFBDB2EFBE92EFBD4A
:1053D000B0EFBDBCEFBE9EE381AEE5889DE69C9F2D
:1053E000E78AB6E6858BE381A7E381AFE38081EFAF
:1053F000BE97EFBDB2EFBE84EFBE8CEFBE9FEFBE97
:105400009BEFBE83EFBDB8EFBE84E3818CE68E9B3D
:10541000E3818BE381A3E381A6E38184E381BEE39F
:105420008199EFBDA10A000000000000000000000B
:10543000000000000000000000000000000000006C
:10544000000000000000000000000000000000005C
:10545000000000000000000000000000000000004C
:10546000000000000000000000000000000000003C
:10547000000000000000000000000000000000002C
:10548000000000000000000000000000000000001C
:10549000000000000000000000000000000000000C
:1054A00000000000000000000000000000000000FC
:1054B0000A000000000000000000000000000000E2
:1054C00000000000000000000000000000000000DC
:1054D00000000000000000000000000000000000CC
:1054E00000000000000000000000000000000000BC
:1054F00000000000000000000000000000000000AC
:10550000000000000000000000000000000000009B
:10551000000000000000000000000000000000008B
:10552000000000000000000000000000000000007B
:10553000000000000000000000000000000000006B
:10554000000000000000000000000000000000005B
:10555000000000000000000000000000000000004B
:10556000000000000000000000000000000000003B
:10557000000000000000000000000000000000002B
:10558000000000000000000000000000000000001B
:10559000000000000000000000000000000000000B
:1055A00000000000000000000000000000000000FB
:1055B000E38090E382A4E383A1E383BCE382B8E5C4
:1055C00087BAE58A9BE38091202020203A205B4621
:1055D000445F4F55545DEFBE8CEFBDABEFBE99EF0E
:1055E000BE80EFBE9EE381ABE4BFAEE6ADA3E38138
:1055F00095E3828CE3819F4644EFBDB2EFBE92EF0C
:10560000BDB0EFBDBCEFBE9EEFBE8CEFBDA7EFBD42
:10561000B2EFBE99E3818CE587BAE58A9BE3819579
:10562000E3828CE381BEE38199EFBDA10A00000013
:10563000000000000000000000000000000000006A
:10564000000000000000000000000000000000005A
:10565000000000000000000000000000000000004A
:10566000000000000000000000000000000000003A
:10567000000000000000000000000000000000002A
:10568000000000000000000000000000000000001A
:10569000000000000000000000000000000000000A
:1056A00000000000000000000000000000000000FA
:1056B00020202020202020202020202020202020EA
:1056C0002020202020E38090E296B2E38091E380C6
:1056D00090E296BCE38091E381A74644EFBDB2EF30
:1056E000BE92EFBDB0EFBDBCEFBE9EEFBE8CEFBD76
:1056F000A7EFBDB2EFBE99E38292E981B8E381B32F
:10570000E38081E38090E382A4E383A1E383BCE3AD
:1057100082B8E587BAE58A9BE38091EFBE8EEFBE43
:105720009EEFBE80EFBE9DE38292E68ABCE3819746
:10573000E381BEE38199EFBDA10A000000000000F3
:105740000000000000000000000000000000000059
:105750000000000000000000000000000000000049
:105760000000000000000000000000000000000039
:105770000000000000000000000000000000000029
:105780000000000000000000000000000000000019
:105790000000000000000000000000000000000009
:1057A00000000000000000000000000000000000F9
:1057B00020202020202020202020202020202020E9
:1057C0002020202020E38090E5AE9FE8A18CE3809C
:1057D00091EFBE8EEFBE9EEFBE80EFBE9DE381A730
:1057E000E587A6E79086E3818CE5A78BE381BEE39E
:1057F000828AE381BEE38199EFBDA1E38090E4B8A2
:10580000ADE6ADA2E38091EFBE8EEFBE9EEFBE800F
:10581000EFBE9DE381A7EFBDB7EFBDACEFBE9DEF3F
:10582000BDBEEFBE99E38195E3828CE381BEE38147
:1058300099EFBDA10A000000000000000000000078
:105840000000000000000000000000000000000058
:105850000000000000000000000000000000000048
:105860000000000000000000000000000000000038
:105870000000000000000000000000000000000028
:105880000000000000000000000000000000000018
:105890000000000000000000000000000000000008
:1058A00000000000000000000000000000000000F8
:1058B00020202020202020202020202020202020E8
:1058C000202020202020283144203335EFBE84EFD3
:1058D000BE97EFBDAFEFBDB829E381AE4644EFBD43
:1058E000B2EFBE92EFBDB0EFBDBCEFBE9EEFBE8C7F
:1058F000EFBDA7EFBDB2EFBE99E381A73135E7A7B2
:1059000092E38081283244203830EFBE84EFBE9786
:10591000EFBDAFEFBDB829E381AE4644EFBDB2EFB6
:10592000BE92EFBDB0EFBDBCEFBE9EEFBE8CEFBD33
:10593000A7EFBDB2EFBE99E381A73330E7A792E6A8
:105940008E9BE3818BE3828AE381BEE38199EFBD85
:10595000A10A00000000000000000000000000009C
:105960000000000000000000000000000000000037
:105970000000000000000000000000000000000027
:105980000000000000000000000000000000000017
:105990000000000000000000000000000000000007
:1059A00000000000000000000000000000000000F7
:1059B00020202020202020202020202020202020E7
:1059C0002020202020204644EFBDB2EFBE92EFBD44
:1059D000B0EFBDBCEFBE9EEFBE8CEFBDA7EFBDB27A
:1059E000EFBE99E381ABEFBE9AEFBE84EFBE9B5052
:1059F00043E3818BE38289E69BB8E8BEBCE381BFC9
:105A0000E38197E3819FE5A0B4E59088E380815B23
:105A1000454D555DEFBE8CEFBDABEFBE99EFBE803F
:105A2000EFBE9EE58685E381ABE5B7AEE58886EF00
:105A3000BE83EFBE9EEFBDB0EFBE80E3818CE4BDC0
:105A40009CE38289E3828CE381BEE38199EFBDA16F
:105A50000A0000000000000000000000000000003C
:105A60000000000000000000000000000000000036
:105A70000000000000000000000000000000000026
:105A80000000000000000000000000000000000016
:105A90000000000000000000000000000000000006
:105AA00000000000000000000000000000000000F6
:105AB00020202020202020202020202020202020E6
:105AC0002020202020205B46445F494E5DEFBE8CA5
:105AD000EFBDABEFBE99EFBE80EFBE9EE381AE4659
