:100000000C94472D0C94782D0C94782D0C94782D0D
:100010000C94782D0C94782D0C94782D0C94782DCC
:100020000C94782D0C94782D0C94782D0C94782DBC
:100030000C94782D0C94782D0C94782D0C94782DAC
:100040000C94782D0C94782D0C94782D0C94782D9C
:100050000C94782D0C94782D0C94782D0C94AF4C36
:100060000C94782D0C94794C0C944F4C0C94782D66
:100070000C94782D0C94782D0C94782D0C94782D6C
:100080000C94782D0C94782D0C94782D0C94782D5C
:100090000C94782D0C94782D0C94782D0C94F94CAC
:1000A0000C94782D0C94782D0C94782D0C94782D3C
:1000B0000C94782D0C94782D0C94782D0C94782D2C
:1000C0000C94782D0C94782D0C94782D0C94782D1C
:1000D0000C94782D0C94782D0C94782D0C94782D0C
:1000E0000C94782D0C946F2F0C94EA2D0C9464557D
:1000F0000C9486360C94F5370C9496360C94382F65
:100100000C94823D0C943A350C94492F0C940F5961
:100110000C94342F0C94C8470C94A2360C942F598D
:100120000C941E2F0C94612F0C94C72D0C94EE5838
:100130000C949A2D0C94194E0C94192F0C94DD5894
:100140000C94572F0C9433400C94302F0C946B2F3D
:100150000C94452F0C94F0470C94F82D0C94CC582B
:100160000C94652F0C94992D0C94FF580C94093421
:100170000C94DB470C94EE370C94DB340C943F2F3B
:100180000C94753E0C94532F0C944F2F0C945D2FB0
:100190000C94302E0C941F590C94FF470C94982EFD
:1001A0000C943C2F0C94F83F0C94D62D0C94EF47F4
:1001B000E889B2000000000000000000000000001C
:1001C000000000000000000000000000000000002F
:1001D000E5A4AAE3819500000000000000000000F3
:1001E000000000000000000000000000000000000F
:1001F000E6B688E3819900000000000000000000DE
:1002000000000000000000000000000000000000EE
:10021000E7B582E3828A00000000000000000000D1
:1002200000000000000000000000000000000000CE
:10023000E9BB920000000000000000000000000088
:1002400000000000000000000000000000000000AE
:10025000E781B00000000000000000000000000086
:10026000000000000000000000000000000000008E
:10027000E799BD0000000000000000000000000041
:10028000000000000000000000000000000000006E
:10029000E8B5A4000000000000000000000000001D
:1002A000000000000000000000000000000000004E
:1002B000E7B791000000000000000000000000000F
:1002C000000000000000000000000000000000002E
:1002D000E99D920000000000000000000000000006
:1002E000000000000000000000000000000000000E
:1002F000E9BB8400000000000000000000000000D6
:1003000000000000000000000000000000000000ED
:10031000E6A19C00000000000000000000000000BA
:1003200000000000000000000000000000000000CD
:10033000E6A5B5E7B4B00000000000000000000032
:1003400000000000000000000000000000000000AD
:10035000E7B4B0E5AD970000000000000000000029
:10036000000000000000000000000000000000008D
:10037000E4B8ADE5AD97000000000000000000000B
:10038000000000000000000000000000000000006D
:10039000E5A4AAE5AD970000000000000000000001
:1003A000000000000000000000000000000000004D
:1003B000E6A5B5E5A4AA00000000000000000000CA
:1003C000000000000000000000000000000000002D
:1003D000EFBC8AEFBC8AEFBC8AE382BFE38383E38E
:1003E0008381E38391E3838DE383ABE8A39CE6AD54
:1003F000A3EFBC8AEFBC8AEFBC8A000000000000BB
:1004000000000000000000000000000000000000EC
:10041000E9A086E795AAE381ABEFBC94E38199E379
:1004200081BFE381AEE59B9BE8A792EFBC88E29693
:10043000A1EFBC89E381AEE4B8ADE5BF83E382926E
:1004400000000000000000000000000000000000AC
:10045000E382BFE38383E38381E3839AE383B3E3AC
:1004600081A7E3818AE38197E381A6E3818FE3811A
:10047000A0E38195E38184E3808200000000000016
:10048000000000000000000000000000000000006C
:10049000E296A1E296A1E296A120E5B7A6E4B88A89
:1004A00020E296A1E296A1E296A1000000000000E1
:1004B000000000000000000000000000000000003C
:1004C000000000000000000000000000000000002C
:1004D000E296A1E296A1E296A120E58FB3E4B88A64
:1004E00020E296A1E296A1E296A1000000000000A1
:1004F00000000000000000000000000000000000FC
:1005000000000000000000000000000000000000EB
:10051000E296A1E296A1E296A120E58FB3E4B88B22
:1005200020E296A1E296A1E296A100000000000060
:1005300000000000000000000000000000000000BB
:1005400000000000000000000000000000000000AB
:10055000E296A1E296A1E296A120E5B7A6E4B88BC7
:1005600020E296A1E296A1E296A100000000000020
:10057000000000000000000000000000000000007B
:10058000000000000000000000000000000000006B
:10059000E296A0E296A0E296A0E296A020E7B582BD
:1005A000E3828AE381BEE38197E3819FE38082E275
:1005B00096A0E296A0E296A0E296A00000000000BD
:1005C000000000000000000000000000000000002B
:1005D000E38391E382BDE382B3E383B3E38292E8F2
:1005E000A68BE381A6E3818FE381A0E38195E3817C
:1005F00084E3808200000000000000000000000092
:1006000000000000000000000000000000000000EA
:10061000EFBCA1EFBD92EFBD84EFBD95EFBD89EFBB
:10062000BD8EEFBD8FEFBCA9EFBCA4EFBCA5E381ED
:10063000AEE382B7E383AAE382A2E383ABE383A2C0
:10064000E3838BE382BFE38292E587BAE38197007D
:10065000E9809AE4BFA1E9809FE5BAA6E38292EF20
:10066000BC91EFBC91EFBC95EFBC92EFBC90EFBC9E
:1006700090EFBD82EFBD90EFBD93E381ABE3819737
:10068000E381A6E3818FE381A0E38195E381840088
:100690000000000000000040404040004000A0A0DA
:1006A0000000000000A0E0A0A0E0A00040E0C060CA
:1006B000E040000080204080200040A04060C0E07A
:1006C000004080000000000020404040404020806A
:1006D00040404040408040E040A0000000004040DA
:1006E000E040400000000000004080000000E0000A
:1006F00000000000000000400000002040800000DA
:100700000040A0E0A040000040C04040E00000C029
:10071000204080E00000C0204020C000002060A0F9
:10072000E0200000E080C020C000006080C0A04049
:100730000000E020404040000040A040A0400000F9
:1007400040A06020C00000004000004000000040C9
:1007500000004080002040804020000000E000E0D9
:1007600000000080402040800040A0204000400069
:1007700040A02060A0400040A0A0E0A0A000C0A039
:10078000C0A0A0C00060808080806000C0A0A0A049
:10079000A0C000E080C08080E000E080C080808059
:1007A00000608080A0A06000A0A0A0E0A0A000E069
:1007B00040404040E00020202020A04000A0A0C0F9
:1007C000A0A0A0008080808080E000A0E0E0A0A049
:1007D000A000C0A0A0A0A0A00040A0A0A0A0400099
:1007E000C0A0A0C080800040A0A0A0A04020C0A0C9
:1007F000A0C0A0A0006080402020C000E040404099
:10080000404000A0A0A0A0A0E000A0A0A0A0C080A8
:1008100000A0A0A0E0E0A000A0A04040A0A000A0F8
:10082000A04040404000E020404080E00060404068
:100830004040406080402010080402C040404040DA
:1008400040C040A00000000000000000000000E0E8
:1008500040200000000000000060A0A06000808038
:10086000C0A0A0C00000006080806000202060A0C8
:10087000A06000000060E08060006040E040404018
:1008800000000060A06020C08080C0A0A0A0004048
:10089000004040404000400040404040808080A0F8
:1008A000C0A0A000C04040404040000000C0E0E0C8
:1008B000A0000000C0A0A0A000000040A0A0400038
:1008C0000000C0A0A0C080000060A0A060200000C8
:1008D000A0C0808000000060C060C0000040E04018
:1008E0004060000000A0A0A0E0000000A0A0C08028
:1008F000000000A0A0E0E0000000A04040A0000038
:1009000000A0A06020C00000E02040E000204040A7
:100910008040402040404040404040804040204097
:100920004080043C4A48523C201824702060926C5D
:10093000A040E040E040001C2018241804382800A3
:100940000000000000000000FE02020040A0400085
:100950000000001010FE101000FE08100000000043
:10096000003C747434141414824428102844820007
:100970001000FE001000102828447C82827C424235
:100980007C42427C7E404040404040102828444405
:1009900082FE7E40407C40407E7E02040810207E25
:1009A0004242427E424242384482BA82443838103F
:1009B000101010103842444850684442102828440F
:1009C00044828282C6AAAA9292824262524A4642D5
:1009D000427E00003C00007E182442424224187EE1
:1009E0004242424242427C42427C4040407E201091
:1009F0000810207EFE1010101010108244281010D5
:100A00001010107C9292927C10824428102844820C
:100A100092545438101010384482824428EE00005A
:100A20001A24484A340C122C22324C40000064181C
:100A30001030201824102848483000001824304472
:100A4000382C10202018041800002C5212240418EE
:100A500024247C4848300000101020281000002476
:100A60002830504C1008081828284400001212247E
:100A70003A40000044242830201C203C4038041810
:100A80000000182444483000003E5414244600005E
:100A90001C22225C4000001E2444483000003E48D6
:100AA0001014080000325222241804043C4A4A3C24
:100AB000100000340810304C0404682A4A3C10002E
:100AC00000224A4A5A24247E407C40407E10282836
:100AD000447C82827E40407C42427C7C42427C421A
:100AE000427C7E4040404040403C24242444FE82DE
:100AF0007E40407C40407E925454385454923C4254
:100B0000021C02423C4242464A526242245A464A2F
:100B1000526242464848704844423E2222222222E3
:100B2000C2444444AAAA92924242427E424242189D
:100B30002442424224187E4242424242427C424285
:100B40007C4040401C22404040221CFE10101010EF
:100B5000101042242418081060107C9292927C108D
:100B60008244281028448244444444447E02424241
:100B700042423E0202929292929292FE92929292FD
:100B800092FE026020203C22223C424242724A4AAB
:100B9000722020203C22223C3844023E0244389CF1
:100BA000A2A2E2A2A29C3E42423E22224200003881
:100BB000043C443C1C207844444438000078447889
:100BC000447800007C4040404000003828287C44A5
:100BD000000038447C4038000092543854920000A1
:100BE00038441844380000444C5464442810444CA1
:100BF00054644400004C5070484400003C242424B9
:100C0000C40000446C545444000044447C444400F8
:100C100000384444443800007C4444444400007894
:100C2000447840400000384440443800007C1010B4
:100C30001010000044282810601010385454381048
:100C40000000442810284400004848487C04000064
:100C50004444443C040000545454547C0000545414
:100C6000547E02000060203C223C00004444744C4E
:100C70007400004040784478000038441C44380038
:100C8000004C5272524C00003C443C244428003832
:100C9000447C403800000038000000000000FF00E5
:100CA0000000282828282828280204060000000020
:100CB000C040800000000012243600000000D84828
:100CC0009000000000103810101010101038101094
:100CD00010381000000044000000000000920000E6
:100CE00000404080000000005050A0000000009232
:100CF000442892284492E000000000000040AC52DA
:100D00001010120C9090D4BA9A9A94E2424A565A11
:100D1000524A10281028447C821010101010101015
:100D20002828282828282854545454545454A2A21B
:100D30009494948888444428282810108A8A52520F
:100D4000522222AAAAAAAAAA4A4ABABABABA5A5A8B
:100D50005AA29494889494A24428281028284400E5
:100D60002040FE40200010385410101010000804DD
:100D7000FE040800101010105438100008FC02FC8B
:100D8000080000287C827C280082827C442828106D
:100D9000182404344848307E02027E02027EFE821D
:100DA0004444282810003E407E403E00007C027EE5
:100DB000027C007E20100810207E000000FE000053
:100DC000001E102020E04040006C9290926C0000C9
:100DD0006C9292926C000040404040407E000204C1
:100DE0000810207E10102828444482824444282879
:100DF0001010003C424242424242424242423C00C7
:100E0000182020100808303648482412126C182088
:100E1000385438083000100000004400004400003E
:100E2000001000004C92929264004000FE00FE0010
:100E3000040004FE10FE4000007E007E007E0006DE
:100E400038C0380600FEC0380638C000FE0024480E
:100E50009048240000482412244800003E404040AE
:100E60003E00007C0202027C003E4040403E007E8C
:100E70007C0202027C007E001010101010FE001098
:100E800010101010FE0002060A12227E7C82000062
:100E90000000007C92B29292927C7CB28A92A2BABA
:100EA0007C7CB28A928AB27C7C8A9AAABA8A7C7C3E
:100EB000BAA2B28AB27C7C9AA2B2AA927C7CBA8A8A
:100EC0009292927C7C92AA92AA927C7C92AA9A8A12
:100ED000B27C7CA2EEAAAEA27C7CA6EEA6A6A67CE4
:100EE0007CAAE6AEAAAE7C7CAAE6AAA6AA7C7CAACC
:100EF000EAAEAEA67C7CAEEAAEA6AA7C7CA6EAAE42
:100F0000AEAE7C7CAEE6AAAAAA7C7CAEEEA2AEAE69
:100F10007C7CAEEEAEA6AA7C7CE2AEEACEE27CFEA3
:100F2000FEFEFEFEFEFEFE8282828282FE101038EF
:100F3000387C7CFE101028284444FEFE7C7C383827
:100F40001010FE44442828101010387CFE7C381005
:100F5000102844824428103844828282443838441D
:100F6000BAAABA4438387CFEFEFE7C387C82828283
:100F700082827C1010FE38386C441010FE28386CC9
:100F80004438444438107C101E060A729090601059
:100F90001814143070602020283424283004263C93
:100FA000663C64200000000000000000000000001B
:100FB00080400000000040A040000024242448009D
:100FC00000203C44A8100802344894A4C080003893
:100FD0004482824438020408100804028040201031
:100FE0002040800A14285028140AA05028142850A1
:100FF000A01E101010101000001010101010F03E65
:10100000222E2828380000382828E888F80E0C08F6
:1010100008080C0EE06020202060E0FE00FE1010AA
:10102000101000FEFE00FEFE00061810101018063C
:10103000C03010101030C0000060920C000014147A
:101040000A0000000000000000A0505000103C10FA
:101050003C5A32207C203C6AB26400004844445030
:101060002000888482825020003800384408303CB8
:10107000003C420204380038007810304C3C007CC0
:10108000081828460020742038642820F4223C6286
:10109000A26C2020F42A4A48B02A20F42A4A48B0F8
:1010A000107C087E24403C147C087E24403C0408CC
:1010B0003040300804040836403008048888BE8870
:1010C0008888108A88BE88888810003C00002040EC
:1010D0003E0A3C000020403E08087E0424403C0AB2
:1010E000087E0424403C2020202020221C2A20208E
:1010F0002020221C08FE18281808100AFE1828189C
:1011000008102424FE242C201E2624FE242C201E1D
:101110003C08107E10100C3C0A107E10100C20F0C1
:101120002E4048508E2AF02E4048508E087E101CCB
:1011300022021C0A7E101C22021C000000186404FB
:1011400018003CC202021C000A3CC202021C000E33
:101150007408101008060E740A10100806202026C5
:101160001820403E2A20261820403E20F422449C8D
:101170002618809C808090A09E08485C6AB2A65683
:10118000202CF22266AA2400385492A244188484A7
:10119000BE849CA49A8684BE849CA49A848ABE84BD
:1011A0009CA49A28E426444444382AE4264444442F
:1011B000382CEA2644444438100810104C4AB21621
:1011C0000810104C4AB2140A14104C4AB2002050B5
:1011D000880600000A205088060000042A54880669
:1011E000000080BE88BE88BCBA8ABE88BE88BCBAF1
:1011F00084BA8CBE88BCBA087E087E087C7A7010DF
:10120000247CA6C41820F42260A0623C08485C6AD2
:10121000B2A254107C207C22221C00282C721410B4
:1012200008485CE224201010001058745418201054
:10123000BCD292BC10200008080C38483408080EB4
:1012400008384C323008405C62023C586444440424
:1012500008303C08103C42323C202CF42464A42288
:101260003C08103C42023C0010147A325214202CEC
:10127000F22262A22C70103C5296AA4438103844D4
:10128000186C92107C207698281E10102020505246
:101290008CA050000000000040A0400000000000B2
:1012A0002010080C30000A2010080C300000007CD0
:1012B000141810207E0214181010200000040818C2
:1012C0006808020408186808080000107C44083008
:1012D000107E42020408300000003810107C007CB0
:1012E000101010FE000000087C18681808FE08188E
:1012F00028C818107E1212122246127E12121222D2
:1013000046107C10107E0808147C10107E0808100F
:101310001E2242040830121E2242040830407E4839
:10132000880810204A7E4888081020007E020202A9
:10133000027E0A7E020202027E24FE242404083079
:101340002AFE2424040830402042220408704A2047
:101350004222040870007C04080834C20A7C040895
:101360000834C22020FE2224201E2A20FE2224200F
:101370001E422222020408304622220204083010B3
:101380001E225A040830121E225A0408300C701013
:10139000FE1010200A7010FE10102000000054549F
:1013A000083000A252520408300AA05252040830F9
:1013B0007C00FE101010207A00FE1010102020205B
:1013C00020382420202A2020382420201010FE102D
:1013D000102040007C000000FE007C04340818242B
:1013E000C0107C081034D210040404081020C0007F
:1013F00028242442428206282424424282042A24A9
:10140000244242824040467840403E4A404678402E
:10141000403E444A467840403E007E020204083086
:101420000A7E0202040830047A0602040830002012
:1014300050880402000A205088040200042A5488BC
:101440000402001010FE105492301A10FE10549234
:1014500030141AFC1054923000FE02042810087058
:101460000C201800700C101020204844FA0404745A
:10147000081424C03C10107E10100E0000203C64A4
:101480001010202EF2241010100000003808087CE4
:101490000078080808FE0000003C041C043C007EA4
:1014A000023E02027E3C007E020408304444444472
:1014B000040830082828282A4C88202020222428A4
:1014C00030007E424242427E00007C4404083000EC
:1014D0007E4202040830047E2424FE0404007C08BA
:1014E0001010FE007E023E0204083040200202047A
:1014F0000870127E42020408300000107C14244C54
:101500000000203C480810000000303000000000BF
:10151000807E000000000020100808000A00201053
:1015200008080044F2BEEAFEAA6C54BA92BED69EE7
:101530005444AABEEAAAA6447C929A9292BA7C7CAF
:1015400092FED6FE927C7CBA929A92927C7CFAA20F
:10155000BAD2BA7C7CA2FAA2DA9A7C0000C6EAE689
:10156000E2AC8080A6AAC6A2AC0000CCEEEEEEAA49
:1015700000006C8E8E8E6A8080ACAECEAEAA060263
:10158000D4AEA8A8A800006688888866AAAAAACCB3
:10159000AAAAAA000004FE000000FE1010101010FD
:1015A0003020202EF020221EFE203C2424448C00DB
:1015B0007C00380000FE10101C101010FEFE1018E9
:1015C00014101010FE101034D210105454FE545C3D
:1015D000407EFE10FE92D6FE8224FE286A6C28FE13
:1015E00010FE9292FE101020F82868384A8E2010C3
:1015F000FE107C10FE203C44880834C20C70FE545F
:10160000FE38D620F82828484A8E1868F828785AD4
:101610007E3CD4047414FC267C2810FE1210303852
:10162000C83CFE147C3010FE54FC16FC30007C00DC
:10163000000000FE7C10107C2424FE10FE40404080
:10164000403E10FE28C62810EE10FE447C1054B216
:1016500010101028284482204EC04040405E1028C0
:10166000DE007C08302848C84850547A2848FE4894
:1016700048485C2454DE7654525E245EC4544C4484
:101680004C2A48DE484444421028DE00FE12104432
:10169000544C44648C323E50DE5A5A645A287EEAD6
:1016A0006A7E48482C4ED4445E44442458C87E4840
:1016B000485C287EC85C5C6A481028DE00FE24FA7C
:1016C0003C40FE4848547A3256D25A72445A287ED8
:1016D000D45454587E225CD45E54525E2844DE4476
:1016E0004E445E287EC85C6A5C483E42DE565E42DE
:1016F000461028FE10FE54B2284ED84E484E4828B8
:101700007EDA5E7848763A56DE6E5A5266547ED459
:10171000D47E40623E48DE5A5A5A5E3E5CDC4858EF
:1017200048763E48D04A7E486A3C54DC487E5C6A33
:101730002C5EC04C405E5E286EF46A64624C547647
:10174000D4F6547654287EC87C5A745A1028FE3831
:10175000205C9C3E6AFE6A767E7E287ED47E405C5B
:101760005C2C64FE687E645A547ED4FE5C545C2417
:101770005EC45656505E287ED47E5E4858345EEE77
:10178000547E546E3A6EFE6E7A426A547ED4FE6087
:101790005E56305EF45C5E6A56345EF676567A4A81
:1017A0002C74DC5C5A6C5A287ED47E5C726E3E5C73
:1017B000DC7E7648767C00FE28284A8E7C44447C79
:1017C000282ACE28AA2C6CAA28CE507C90FE282A43
:1017D000CE105410FE282ACE5C545C545C2ACE54A1
:1017E000FEBA28382ACE701010282844821028FE0D
:1017F000107C10FE2828282844448228284492106F
:1018000024FA10FE0028284482287C2828FE00C6DE
:101810000C707C48FE00C67C447C44FE00C6287CDC
:101820006C7CFE00C610FE92AAC68286FE9292FED4
:101830008282867E6A6AFE6A6A42FE547C54FE4454
:101840004CFEA23C20FE081818681028D6300C88E0
:10185000142E00BE8A88407C54D426508E105454D6
:101860007C9292FEFE121222224286282844BE1446
:1018700024CC5E4AEA4A4A6A16722A2AFA222226A8
:10188000F24A6AAA6242865EEA2A4AEA6A5622AAAC
:1018900022FA22FA26F29AFA4A7252B6722AFA2AE0
:1018A00072A226627AAA7A22FAAA7A4A7A527A5AD4
:1018B000965438FE44BE146C22FA4AAA5222D6E24A
:1018C000AAEAAAE202A624FE00EAAAE2A6FA56764C
:1018D00006FAAAFA22FAAA7A22FA76225AEA6A4280
:1018E00072B6223AEADAB2DAB610FE122222428642
:1018F00008FE4A4A6ACA1640FE5A5A5A5ABE745ECE
:101900007656765AEA2EFA546ABC146C54FE927CCF
:101910001424CC28FE5A8A5A2AD67C087C54FE22EB
:10192000C664AE76762A6ABEE85EEAEAEA4AF6E875
:101930002E54EA7EAA76F6A4FEACFEAAB6287CEC6B
:1019400076BC146C54FE56F6F62AFA407EBA0A7A31
:10195000407E3050D25C50525E2828EA2C68AA2E75
:10196000FE84B48894A0FEFE909CBE88B6FE101043
:10197000FE101010100C7010FE101010407C901013
:10198000FE10101054107C10FE1010FE4444AAFEED
:1019900010485EEA404A7E5610FE10FEAAFE92549F
:1019A0007C547C54FE104A7EDC5C7E544C2ECA8AE9
:1019B000EA8AE80838C87E5C54529E2ECAEEAAEA2B
:1019C00028487E5C5C447E48987E485C5C486A9807
:1019D000547E60765A749A107C10FE1024FA287493
:1019E000FE54A2087020FE203C5448B67E407C5431
:1019F0005448B62EA2AAAAB4E42AF05E727A54FA27
:101A000010FE54FEBA2810EE007E4242427E421082
:101A100010FE107C447C203E42BA2A3A06FE047432
:101A20005474040C101024FA007C7C107C547C301C
:101A300010EE20FE207CA4243C3828FE203C041C10
:101A4000FE027A027A7A0618681028C638381028FA
:101A5000DE007C447CFE82BA82BAAABA3C245810CA
:101A60003ED21E0C70407E405C9C10FE82BAAABA28
:101A7000867C14FE143EE23EFE1034D27C447C3C54
:101A8000D4D6D2EA245A507C90FE007C7C7E527AD6
:101A9000527E6ABA08FCA8BEE81C2A06F8EAC8FE0C
:101AA00008181028DE00EEEA08702EFA2A7AAA2E0C
:101AB0007C447C00EEAAEE38287C7C447CC61CF476
:101AC000BEA2FE223E10FE24FEAADE9AEEAAEE82FE
:101AD000BAAABA24FE10FE54FE7C10FE7C28FE44F6
:101AE0007C54FEAA38107C7C6C6C10FE10EE6CFEF0
:101AF000AAAAAEC282FEFE82BAAABA82FEFE92FEF6
:101B000092AAC6FEFE8AFEAA8A9AFEFE92FEBAD665
:101B100092FEFEAAFEAAFEAAFEFED286AA9AA6FE01
:101B2000FE92BA92AABAFEFEBA92BA96BAFEFEBA6D
:101B3000FEAABAD6FE10107C101010FE7E48485C3B
:101B40004848BE20FE285CC8487E4454DE7654D205
:101B50001E5E50FE5A5AE41A505EE24A66DA060CDD
:101B600070FE54FE10FEFA56FE52BA10FE447EE499
:101B70007C6EF42A447EC47476CC32287C28FE44E1
:101B80009238487EC8547EC41454FEAA387C10FE95
:101B90002E7AF85EFA742A5C54FE505EEA16505EA5
:101BA000F45C40DC3E487ED47E5CDC2628FE38FEB9
:101BB000449238547EEA7E5CD41C1010FE10101043
:101BC0007C10FE107C547C8010FE10FE8228CE100B
:101BD000FE28BA6810EEFE3838386810EE101E2263
:101BE000DA040870487858BC1A28C8186810EE3211
:101BF0000C7010FE284EDA445A28FE54FEAA1870C3
:101C00001010FE101028C6FE107C101028C61010F0
:101C1000FE101028D6107C10FE1028C6107C54FE32
:101C20001028C6507C90FE1028C6107C38FE5492B6
:101C30002810FE74BA7C547C1010FE246818E62E1E
:101C400022F45E6434CC485CE8BEC85CAA10FE1482
:101C50007CFE28F6445EE4BED676842424FA5E60D8
:101C60003ECE38FE38D67C28F6901EAA14FE28F602
:101C70005C44FEAADC7C887C0810FE10103010FE4C
:101C8000BA08FE103020FE2C44FE4858127C18FE84
:101C900024DE0838FE3CDA08FE1054FEBA08FE10B6
:101CA00030EE244864DE44D610FEBA10FE101E103A
:101CB000FEBA10FE103010FE8208FE281810FE92A8
:101CC0007C2818E610FEBA00FE28CE10FEBA00FEF0
:101CD00054B210FEBA283C243C10FE927C7C547C0A
:101CE00010FEBA105C50BE10FEBA103814FE10FE82
:101CF000BA10FE10EE10FE9A6810EE3810FEBA0010
:101D00003828FE10FEB2287410FE10FEAA38107C8F
:101D10007C10FE927C10FE3810FEBA30DA2CDA10FD
:101D2000FEAA5428FE3810FE825EC85E5E10FE9247
:101D300028FE547410FEAA60BA547C10FEAA387CA7
:101D4000547C10FEAA7C7CB20810FEEA44BA54B25D
:101D500008FE0828180818107C10FE08FE2822FE2D
:101D6000125A26528610FE3838FE2818227E527AE1
:101D7000D632D64678EA44FE544C24FE5C6CFE28EB
:101D800018543EDC5CFE281810105452921030108B
:101D90005452903418E026F45E7424B46A7C447C77
:101DA000504844827C447E427A6ABA7E7E487E48AD
:101DB0005C9C7E427E487E6ABE7E427E547A48BEED
:101DC0007E427E547E68B67E7E4C5C7E6EBA7E7E9F
:101DD000546A7E549C101092929292FE547C00FEA3
:101DE00040BC3C92FE405C487E88107C7C407EAAD1
:101DF000FA425252525242825252F6F65252925481
:101E00007C7C10FE38D6007C10101010FE20FE20C6
:101E10003C48887E24FE10FE5C48BEFC0404FC8026
:101E2000827E5438FE4CBA203C10FE107C54541074
:101E300020FE287EAA2A08641824FE48BE2A5EE8EE
:101E4000FEAAEAEA08087E547E487EAA54FE54FEA2
:101E5000927C545CC4FEEA5C5C885ED0DCD07E542C
:101E60005A54FEAA387C541028FE38FE56BC347CE6
:101E70001010FE101010FE543810FE1010407E900E
:101E80007C50FE10107CFE28FE7C10E44AE0AE443C
:101E9000EE44282EDA6A2A5AF6087E407E48489890
:101EA000087E40484854BA087E5C447E4A98087EC2
:101EB0005E545E54BA087E484E485E9E087E525E6E
:101EC000725A96087E547E5448B6087E546A5C481E
:101ED000BE087E487E5C7E88087E72546E54AE08D2
:101EE0007E4E7C6A5CAAC25C8654DE40BEDC4E9CA0
:101EF00048DE48BE1024FA28FE28480AFE08782446
:101F000034C27C047C40FE020EF212F282F21232E3
:101F100024FE127E503ED2EE22EE8866AA66DE5085
:101F2000DC90FE54DAC852FE9CDC4AFE52347E023B
:101F30003E027EFA5452FC5052945C9466DC544843
:101F40007650887EC85C487E7C9448F65C487E4823
:101F50009C48FE447E5448BC4EFC487E4848904A0B
:101F6000FE544876489C48FE4C586E4ABE44D654AF
:101F7000546E5C947EC47E544C509E6CCC54487617
:101F800048BE5CDC40726E2010206462A43C2014C9
:101F900024AAB220DE10FE107C00CABA10FE407CDB
:101FA00054CABA087E504850769C107C547C10CAA3
:101FB000BA48DCCC7E4848761028DE3808C2BA7CA5
:101FC000547C547CCABA38C87C047CCABA58DEE84F
:101FD000485C487E7C546C7C54CABA107C447C7C3F
:101FE000CABAFE7C7CFE54CABA28EE28EE28C2BAD1
:101FF00048DCC87E545C542EFA6EBA2EC0BA107CEF
:1020000028FE38CABAFE54FEAA5C28D6047E74B2F2
:1020100000CABA54F6507456C8BA5CF6DC5C5C5C14
:102020006210FE927C38CABA047E44745654AA1ACE
:1020300068FE28FA246AAA08FEF426F42AFE007C28
:10204000447C4080F20C785E7A4A920C70FE10FE5E
:10205000103008FE080C18E8185EE44464C444CC50
:1020600054D45E54D45CF63808D27C54BA1048FE7E
:10207000487CD448F65CD4665CD448F644D8505EBC
:10208000D464C45EF25E72DE40DE5EEA5266DE5208
:10209000DE7EDC485CC87EC844DE5054D46ACE483C
:1020A000D46E40DC54DC48DC487EC47ED452DC5222
:1020B0005EC05EDE54FE44BA7CFE3048D46A5CFEEC
:1020C00054DC7ED47E62DC48F646F86A44FE5CEA64
:1020D0007EE25466FE5CEA48FE547ED44CF254DE46
:1020E000745ED454DE4CEC5E44D654EE7EEA7E5CE4
:1020F000DC7EC84CEC5E72DE40D25CD47E6AFE5C54
:10210000EA10FE10782810EEE82EFA8AAAE41A24C3
:10211000F64A7A5A54BAF4262ABAAAB4CA48EE5AE7
:10212000EAAAE41A24F62ABA6AB46AE8AEFAAAEA73
:1021300004AA24762AFA5AB42A54F65AFA5A745A35
:1021400054F65A7A9A543AAC76AA4AFA54EA26FADB
:1021500074AAFE5CFE24F65AFAAADCFA10FE2828BD
:102160001028C6A454E454C6FC44D2ACF8AEDA8AB3
:10217000F222FC582EFA72AA10FE203C24448C480D
:10218000EE54687AACAA48EE586C7EA4AA48EE5C7D
:102190006C7EA0B27E42427E42427EBEA2A2BEA21F
:1021A000A2BE7C447C447CFE10EEAAEEAAEE12266F
:1021B0007C447C207EAA56287C28FE7C447C7C447F
:1021C0007E50BC10FE08FCB4FEA8E836107C38FE39
:1021D00044BA3808EEB8EEA8EE081EEAB2E6BEF23F
:1021E0001E7C447844BA28FE08FCA8FEA4FE140C09
:1021F000F4BEEABED4267C44FE447C54B204EEA471
:10220000FEAAEE0A7C447C38FE34DC06F8AAFEAA5C
:10221000F42A08FEB4FEA0EC0C28FE38FE44BA38BE
:102220007C7C28FE5438D61EEABEE4AEFC0E28FEA6
:10223000AAFEAAAAFE107C16FC10FE7C7C44FE526C
:102240005AF41A3E223E223E428620FE207CA43CC6
:10225000247E52705E7A54BA4EEAAEEA8EAAD62E28
:10226000FA4E72FE10FEEE4AEEAA4EEA565EFA5E94
:102270007AFE0A9610FE1038549210107C10FE1050
:1022800038D610FE107C1038D610FE103854BA1014
:1022900028F8287868AA2E5CD454D4D4546644FE16
:1022A00044C6CC744C24FE24746CA42C10FE547CC4
:1022B0001038D6186810EE7C38D610FE5410FE3850
:1022C000D610FE547C5438D654D462C8C8547A5EB2
:1022D000D05EDADA645A24FE246C76A42450DE74CC
:1022E000D4D448767C547C54FE38D648FE48FCD47E
:1022F0004876903C9426FE38D650C87EC8DC487E8E
:1023000010FE38D67C44FE54FE927C1038D648FE2F
:1023100054E2D4487658DC68FEC85C6A5EF25EF22D
:10232000DE545A4CD448D4E25C5C10FEAA74FE38E9
:10233000D66AC448FED44C7250DE4CFED45E44448F
:10234000FE54FCD6544A48DC7ED4EA5C48107C3803
:1023500054FE6CB644DE44D6D6505E48D47EEAFEC7
:102360004876AAFE287CFE38D65EE84CF6D6445E57
:10237000926CBA10FE38D654FE54FEDC7E5454FEE5
:102380005CFEEA5C6A7EDC5CC0FE486A54FE5CD49B
:10239000FE487648EE54EEDC4C4E54FE54FEDC5CB7
:1023A0006252FE52FAEE527A5CFE54EAFE626A52C1
:1023B000E452FCD6546A407E52901028C6901E2AE1
:1023C000088894A254862A5484747AE82EB6E424A9
:1023D000A47A10105C505050FEFE10105C5050FE5D
:1023E0006A08FE287464F2105C50FE549A70105E05
:1023F000FC765A767E7E547E544654BEFE486AACC5
:10240000684A8EEA5E68BC6A449A2E4A604E6AC484
:102410005A5E2AD02EFA74AA3C3424FE547E0C4014
:102420007EB4FE547E0C107C10FE54FE7C48487A2C
:102430004C487ACE0C701EF01EF01E0C70507E4878
:1024400044E27C447C507E48E6407EB87C5424D2F2
:102450001012F4385492305012F438549230300044
:1024600032D458943214FE105438D43284149E3628
:1024700094929E881C8C3E8888B6A03ED83C84846A
:1024800082BE02BA2ABA8286883EAA3EAAAABE881C
:1024900008943A809C9C941494229C949C107C44B4
:1024A0007CDA54B2881C883E8894BA883EAA3CB430
:1024B000A8D6883E94149498BE9008BE089C88BE06
:1024C0009800986AACCA98943E881C88BE88981E6A
:1024D000A83E9494A68418BE089C949C8438A63880
:1024E000B6B4D2883E943A989AAA8A3E883C8A84A6
:1024F000BA94228814A29C9CA03E9C7EB4BE8CAA56
:1025000008BE22BEA2A6883E9016BA949ABE229415
:1025100026BE9CAABE22BE24B6A4B6881C883E94C1
:102520009C94883E9408B69CA4843EA43CA6BCDA45
:10253000BC24BC00BCACFEBA2EBE2EBA82AA943E0D
:10254000947EAAD09CAE7AAE7ADEFA8A9C14BE1033
:102550009EAA96943E947EAABEA2BE24AE2EA4B697
:10256000CC941EB41E90FE108C349E1A9E80AA88B5
:102570003EA21CAA9CA2947EAA3EFE88B6963E96D7
:102580003ABE88AABE1ABE3A9EBA929436BA7A9ACF
:10259000ACDA101054581028C65E44E4C444648C6D
:1025A0007E486A6C4854A24A944A105428C692FE47
:1025B000486A6C48B6101C107C7C00AA80FE54FE51
:1025C00054FEAA745EB424CA00AA485CFED47E54A9
:1025D000A6FEAAF2AEEE00AA28FC5C7CAE00AA28F9
:1025E0006CF46CB600AA545EECD46A40AA28C628E3
:1025F000281028C648487E407C4484AEA8EE8AEA6B
:10260000B4AA507C9010FE1010D0DEF454D448765A
:10261000D0DEEE4ED66A56C8DCC87EC47E54141096
:10262000FE101028C6BE52B276B032DE4A48FE48CE
:10263000C85462A85EBA7EA82ADE10FE542054FE5A
:1026400010FE10107C1014FEFE10107C1010FEE620
:102650004C6CEE4CD42EFE525EF25EEC16CA7E48F6
:10266000EA5CEA18FE6A7EEA7EC83E507E90107CE4
:1026700010FE10FE247E5C48BE7E527E527E529634
:10268000FE9292FE9292FE10FE92FE9292FE10FE3A
:1026900092FE92FE107C547C54FE22C6F0BEF4B42E
:1026A000B4F40CFE10BABABA82FE7C547C547CAAF4
:1026B000485E56F6DE56769E2EC696EA7C547C061A
:1026C000EAE4EAF0EE0EFE54FE38D67C7C7C547CC4
:1026D00028FE00C69EE49E6AEC58B6087EDC7EEAC0
:1026E00076A2087EC47EEA7EAA74AA44BA7C28CE6A
:1026F00074AA44BA2810FE107E427E42427EFE102A
:102700007C447C447C48EEB2EAA6E206107C447C21
:10271000FE10FE087E4A7C5448B6007C5454545443
:10272000FE24FE44827C54FE047E64AA7C54FEEEA9
:10273000AAEE127C54FE7E427E427E427E10FE1045
:10274000BCA4BCFE2EFA2E7A6EAA2E1054923CE443
:102750003C3C0C703CFE7CA43C3CA4BCA4FE10920F
:1027600010FE3838FE00C6FEB2FEB2FEB4FA24FEF9
:1027700010FE5C5C9C407C90FE1028C6407EAA7ACD
:102780002A5A8E9EE05EF25E6C9EFE20207CA4247F
:102790003CE85C5A886A6418FE4A4A9E6A6A12E4F7
:1027A0005E569E7A740AE45E568C7E6C0EEA5E4A31
:1027B000946A741E7C00FE1054923048E82848E861
:1027C0004A4E44E42E44E4445E5CF43C54FC547EA3
:1027D0005EF2325EEC4C5648FE2A7EEA7E48FE549B
:1027E0007C00FE54B27652AC44BA54B224FE6CB6AD
:1027F000FE54B25EEC2C40FE565E7424F42478AA9B
:102800002EC848EA6CC8D462E454E454C6FC44C8F8
:102810005CDA68CAC458D04AD274FAD06EEC54E874
:1028200056EAC458DC54FE48DCC87ED47EE27ED42E
:10283000D466C458FE5CDCC87E2EFA20FEAA74AAB8
:10284000C85CC87EDCDC6210FE822828448210FE50
:10285000AA4CF82ACE10FEAA4C3810FE10FEAA4C44
:1028600030CABA10FE44242828FE107C28FE44FEFC
:1028700010107C28FE7C10FE24FE5AFE5A6CB648CE
:102880006EB42424242C486EB410FE10EE486EB4AE
:10289000107C547C486EB47C503ED2486EB47E149A
:1028A000FE10486EB418FE2818486EB4687E6AB6EA
:1028B000486EB438C63838486EB4FE9238D6486E82
:1028C000B47C44FE48486EB4FEB23C3C486EB42A28
:1028D000FE7AAE486EB4EEEA9AE8486EB44CEE3832
:1028E000D6486EB4EEEEBABA5410FE1038D610B414
:1028F00054E25CD4D46CA85CC87ED4DC54887EECF2
:1029000066FCEA4E10641824FA10927C106014FAE7
:1029100010925E8242BE50F25E488E52AA46E24655
:10292000409E44A444E45E48BE6AAA76E26648BE7D
:1029300048AA7EC84E429C54BE54F45A7C94569287
:102940005AE45A107CFE24FA10925E9656BE56F651
:102950005E4C9448B648E04C5C945CB45CD47E7C9D
:102960009448B65CC87E48BE489C40DC5C48946E87
:10297000805CD45C48BE54BA54D46648946E807E61
:10298000D47A4CB45EBA5EF05E4C8C40BE52FE52BD
:1029900048BE48BE62D466489C549C7EEA4854A215
:1029A00054BA40F26E5C847E886ADC6A489C549C0F
:1029B0007ADC6A7E945C905EEE4A48BE5C9C48DCA1
:1029C0006A5AAE54B654DC5648BE629E74D6564817
:1029D0009C48BE5CDC6256BC5EBC46DC5AFEFE28EF
:1029E000EE28EE48FEAAFE24BCA4FEFEAAFE38FE97
:1029F00034DC24FE107C10FE1024FE7C10FE10EE51
:102A0000FA5EF45E64FE7424FE10FE2AFC2AFE12B6
:102A10005A1236DA36FE5A36DA7C28FEFE5A36DA92
:102A2000207C7C127C18FE3CD01E127C18FE30DE0E
:102A300002127C18FE20DC1C54FE54D47ED464FEAA
:102A4000243C3C24FE04FE6AFE107C10FEEEEE8266
:102A5000FEBAFA8AF67C6E7C66F43A10FE92AA926E
:102A6000AA86FEAAEABEE0A2BE10FE24FA447C4476
:102A7000E4BEE4BEF6B6A4FE92FE7C447C4428EE9E
:102A800028FE447C44E8AEF6AAF6BEA22456F476AC
:102A9000567456E4B8E6B8F6B4B2FAA2F4AAF6B29E
:102AA000BEEEAAFEA8EEB6AAF0BEECACF4A8B6F450
:102AB000BEE4BEF4B4BAFE90FC84FC90FEF4A6FE24
:102AC00096F0AEFE107E427A5E427EFE2874107C46
:102AD00010FE46BAEEBAFE00C60C70FE107C447CB6
:102AE0001028D638FE447C48FEA0BCF4B4B64AEAAE
:102AF000AAB0EEAAAE107C447C7C48E638C87C5470
:102B00007C423E28FE284ACC4A4E28FE287CFE24E1
:102B1000FA28FE7C48FE28D828FE20FE40BC3C282F
:102B2000FE28FE107C7C28FE2854FE10EE28FE10A5
:102B300028FE109228FE7C447CFE1028FE285EC2EF
:102B40005A5A28FE5408FE38D628FE8C3488369C03
:102B500028FE5C40FE38D628FE3C18FE34DC28FEF9
:102B600032D452FEAA28FE287C7674BA28FEBA6CAB
:102B7000FE38D6107C54547C14FAFE10EE547C14AB
:102B8000FA207C54545454FE107CFE509A54925CAB
:102B9000807EC444444C56B856FA7A525656B856BB
:102BA000FA527A4656B85EEA527A5610FE102AEC6D
:102BB0002472107C10FC2AE432287A28FE66D46A3B
:102BC00048FE48DCFE68B610FE547CFE68B64AFE3D
:102BD000285EFA7E5A627AAA72FE68B650FE2C4CC3
:102BE000F46856FE28FEAACE82FEFE547C10FE2813
:102BF000F67C447C447C2ACE5EF25EF25E6C965E8D
:102C0000F23E52FE4C5654FEAA38283ACEE8CEE6A2
:102C100038383ACE2EFA5E2AFE74AA4E7AAE7AEE92
:102C20006C7638C87E527E42866EA67A7E745EB41A
:102C300038FE0038007C7C44E41EC404E4E444DE36
:102C400004D40CC4CC52DA1ADA1AD2E25EE202DE02
:102C500010D2DE48FE10DE12D2E65CD426DC14C8A8
:102C6000F650DC28C83EC8C85ED21ED414D2E25E3C
:102C7000E404D614D4FEBEC82AC83EC8C85EE21A10
:102C8000C21ADAC64AC83EC43CD4FA48DC08BE04BC
:102C9000FED444D83EC81CD4DC48FE08DC00D2EE8A
:102CA0005ED60AD600D2EEB2DC26943ED0EE5CC8E8
:102CB0003CD43ED4DC44FE24BC2EF4EA46D61CC4EC
:102CC0001EC0D294FE22BE14D4E648FE08BE22D412
:102CD000E6BEEA3EC83EDCEABEEA3EAA36FEE2AA0C
:102CE000D422C82AD4E248D42EC03EFEEA4ADC08E8
:102CF000BE10EECE94FE14BE1CFED452FE2ABE2E92
:102D0000DAEA56FC1EBC06DCDA56FA749A30FE3853
:102D100094FE08BE16FCD294FE1CDE14C8F62844AD
:102D20001028C63838FE007C447C28FE287C7CFEB7
:102D30004438FE38C83C3CDA2CDA7C447C447C00C5
:102D4000C638C87C447C7CC6E4BEE4A6EC14AC283F
:102D500044FA287C7CC6284EC84E3C3CC6107C10E9
:102D6000FE447CC6E4BEF2AEE404AC107C54FE44E7
:102D70007CC6FEAAFE7C447CC62A5EC4423C3CC69D
:102D800028FE2AFEC47CC62EC6EA7C447CC640FED1
:102D90005ABE243CC62458FE483C3CC6901E2A9489
:102DA0007C7CC644EE44AA7C7CC654FEAA7C447C4F
:102DB000C624486EBC243CC6107C10FE28AA5810BD
:102DC0007C10FE1C50BE2EF22EF86E609E7C447C61
:102DD000105C50BEE6AAE44AF0CEEE103C243EFC65
:102DE000146C10FE547C54FE10FE92FE7C54FE10B7
:102DF000EE40FEE444EA5EFC54C8F65CC87EE8544B
:102E0000EEE05EFE56E854EEE05AFA5A24DEEA5E40
:102E1000E4BEE4287C7C007E68B6BE4A0AD26640E6
:102E2000BE845810DE5464BE9E501EDA546ABE8AB8
:102E30003E08EA6A48BEAA083EDC6A48BE885E1EB2
:102E4000D05E52BE9E521ED25C56BE943E08DC48F6
:102E500076BE943E08EA7E50BEBE043EEA7E6ABE5E
:102E6000887E2AFE5C6ABE981C28FE545CBE883EA2
:102E70001CDC7E48BEBE2A3EEA765EBE941E34DE70
:102E8000545EBE943E16DA6E54BEBE2A1CDC7E48EA
:102E9000BE8E4A0ADE525ABE943E08D45C54BE88A6
:102EA0001C3ED47E48BE881C3ED45C6ABE883E145C
:102EB000FE6A76BEB61224F65C62BE883E2AFE5CCE
:102EC00062BEF656FC5666F4742EFA5CFA0A6C681A
:102ED0007E2AFC6AFA2CF846BE6CBEE66CB42E7AEA
:102EE0002CFA4ABC38EE42E2EEA8EAEEBE14BE3638
:102EF000A2BEBEEA5EEAF2ACF4EA7C547C547C10DA
:102F0000FE38FE547C5438FEFEB2F4BEF624FC7C3F
:102F100044FE547C10FE1028FE10FE54FE44A4FE15
:102F200044E464C44CAEF45EE464DA44BEF054F4A9
:102F30006ACE5EB2FE52FE74DA5EB2FE52FE7ED2FF
:102F40004ABEE85CEA64DA7EA2F66AF67EE25CA437
:102F5000FE48EA5CEA48BED47EDC5CE63C203820D1
:102F6000FE2876EEAAEE82828286EEAAEE92FAB26F
:102F7000D6EEEE82FEAAFEAAEEAAFEAABAAABAEE81
:102F8000EEAA92FE92AAEEEE9AAA92EEBAE4BEC819
:102F9000AEAACA96CCD488F6DCBE84FEB2DEB2BE3F
:102FA000D49AE4F6A4F6DC88BEC8FEAEC0FE94A6B1
:102FB000C8D4BEC8FE88AAC8DCBED4E688BEC8D4C1
:102FC000BEEAFE88B6DCD4BED0DEAA96D4FE90EA75
:102FD000DCAA98E4B6E4B6A8DC9CDEEA94E2DC88DD
:102FE000AAC8FE94FEDCBE88287CA83CFE38D64ADF
:102FF000EE6CBEEC7CAE5AFE5CFEFC2CDEFE10FEDF
:1030000092B692B638FEB6007C047C38FEB600FE5E
:1030100024FA38FEB67C547C0E107C10FE447C44AE
:10302000267A24FE567E5428EE28EE28EE48FE101E
:10303000FEAABAAAFE28FE287C54FE10107C28FEA8
:103040007C447CFE485E525EC0125E747E7A7E5086
:103050009AEE244EEA6E40D25EA4EE0AEE6052EE84
:1030600004EEAA4EE0126E64FE2E706A9E2EF4BE2E
:103070005A2ED07A2EF45EFAAE90AAFEA4FEFAAED4
:10308000F0AAAE74AE2AFE20DA7C547C7C545CB686
:10309000FC54D27CD654921028D6303428765EB0B8
:1030A0005EDADA94EA48AE56E4E484EA5EA25AC2F2
:1030B000DA9AE624FE10FE7AB43A44BE52ECEE8A66
:1030C000EE24FE107C7C447C7E507C507E02AAEE76
:1030D000CAEACCEC2AB2E8D4FEEAFE28B67C4CFE62
:1030E000C67C444C10FE2838FEAABA38C87C547CF2
:1030F00000AA107C7C407E02AA08DCDCD0DE022A1A
:10310000107C10FE2850AE28FE28FE547CC67C544D
:103110007C10FE00AA1038287C54FE4810101010B5
:10312000100010147E282828FC50083E483C127CD1
:103130001042A44810244A8430485024548876020F
:1031400004080808040280402020204080105438E1
:1031500010385410101010FE10101000000000C0A5
:1031600040800000000000C0C00204081020408021
:103170003C42424242423C103010101010383C4257
:10318000020C30407E3C42021C02423C040C1424DF
:10319000447E047E407C4202423C3C42407C4242AF
:1031A0003C7E0204080810103C42423C42423C3C37
:1031B00042423E02423C00303000303000003030AD
:1031C00000301020000638C03806000000FE00FE67
:1031D000000000C0380638C0003C42020C1000104D
:1031E00038449AAAB44038102828447C82827C4211
:1031F000427C42427C1C22404040221C7844424295
:103200004244787E40407C40407E7E40407C40404E
:10321000401C22404E42221C4242427E42424238E0
:103220001010101010380202020202423C424448C0
:10323000506844424040404040407E82C6AAAA9224
:1032400092824262524A4642421824424242241822
:103250007C42427C404040182442424A241A7C422C
:10326000427C4844423C42403C02423CFE1010102A
:103270001010104242424242423C8282444428287A
:1032800010829292AAAA444482442810284482823E
:103290004428101010107E02040810207E0E08082A
:1032A0000808080EE02020202020E0102800000060
:1032B0000000000000000000FE20100000000000E0
:1032C000000038043C443C404058644444780000CA
:1032D00038444044380404344C44443C00003844EE
:1032E0007C40380C10381010101000003C443C0496
:1032F0003840405864444444100010101010100826
:1033000000080808483020202428302824301010D5
:1033100010101010000068545454540000586444B5
:103320004444000038444444380000784478404025
:1033300000003C443C04040000586440404000004D
:103340003C403804780020782020241800004444B1
:10335000444C3400004444282810000044545428AD
:103360002800004428102844000044282810600049
:10337000007C0810207C06080810080806101010B1
:1033800010101010C02020102020C000000040A00D
:103390004000E08080808000000020202020E000AD
:1033A0000000000080400000000040000000E0201D
:1033B000E0204080000000E06040800000002040ED
:1033C000C04000000040E0A02000000000E040E01D
:1033D00000000020E060A000000040E0604000002D
:1033E0000000C040E0000000E06020E0000000E0DD
:1033F000E020C00000008060000000E0206040404D
:103400008000202040C040400040E0A0202040003C
:1034100000E0404040E00020E02060A0200040E0CC
:103420006060A0A00040E040E04040004060A0207C
:1034300040800080E0C04040800000E0202020E08C
:1034400000A0E0A020408000C000C00020C000E03C
:1034500020204040A00080E0A0A080E000A06060AC
:10346000204080004060A060408000E040E040409C
:10347000800000E0E02020C000E000E0404080004C
:103480008080C0A08080004040E04040800000601C
:10349000000000E000E020A04040A00040E020400C
:1034A000E04000202020204080004020A0A0A0A0DC
:1034B000008080E080806000E0202020408000408C
:1034C00040A0A020000040E040E0E04000E02020DC
:1034D000C040200000E0006000E00040404080A0CC
:1034E000E00020A04040A08000E040E040406000BC
:1034F00040E06060404000C040404040E000E020CC
:10350000E02020E000E000E02020C000A0A0A020FB
:103510002040004040C0C0C0E00080808080A0C04B
:103520000000E0A0A0A0E000E0A02020408000C0BB
:1035300000002020C000A000000000000040A040CB
:1035400000000000FE0000000000004444287C1041
:103550007C102A2A2A2A2A2A2A2A2A2A2A2A2A2A93
:103560002A2A2A2A2A2A2A2A2A2A2A2A2A2A2A2ABB
:103570002A2A2A2A2A2A2A2A2A2A2A2A2A2A2A2AAB
:103580002A2A2A2A2A2A2A2A2A2A00000000000097
:103590003E5B4F5B3E3E6B4F6B3E1C3E7C3E1C18C1
:1035A0003C7E3C181C577D571C1C5E7F5E1C00181F
:1035B0003C1800FFE7C3E7FF0018241800FFE7DB13
:1035C000E7FF30483A060E2629792926407F05056F
:1035D00007407F05253F5A3CE73C5A7F3E1C1C08AC
:1035E000081C1C3E7F14227F22145F5F005F5F0671
:1035F000097F017F006689956A606060606094A2BF
:10360000FFA29408047E040810207E201008082AD7
:103610001C08081C2A08081E101010100C1E0C1E76
:103620000C30383E3830060E3E0E0600000000001A
:1036300000005F00000007000700147F147F1424BF
:103640002A7F2A1223130864623649562050000844
:10365000070300001C2241000041221C002A1C7F9D
:103660001C2A08083E080800807030000808080876
:1036700008000060600020100804023E5149453EE9
:1036800000427F400072494949462141494D331863
:1036900014127F1027454545393C4A49493141219B
:1036A0001109073649494936464949291E0000147F
:1036B00000000040340000000814224114141414C7
:1036C00014004122140802015909063E415D594E79
:1036D0007C1211127C7F494949363E414141227F8B
:1036E0004141413E7F494949417F090909013E4124
:1036F0004151737F0808087F00417F41002040410D
:103700003F017F081422417F404040407F021C025D
:103710007F7F0408107F3E4141413E7F0909090631
:103720003E4151215E7F0919294626494949320304
:10373000017F01033F4040403F1F2040201F3F408A
:1037400038403F6314081463030478040361594943
:103750004D43007F41414102040810200041414196
:103760007F0402010204404040404000030708007B
:1037700020545478407F28444438384444442838FE
:103780004444287F385454541800087E090218A471
:10379000A49C787F0804047800447D4000204040C9
:1037A0003D007F1028440000417F40007C047804E5
:1037B000787C080404783844444438FC18242418DD
:1037C00018242418FC7C0804040848545454240485
:1037D000043F44243C4040207C1C2040201C3C40B2
:1037E00030403C44281028444C9090907C446454D1
:1037F0004C440008364100000077000000413608C4
:103800000002010204023C2623263C1EA1A16112F3
:103810003A4040207A38545455592155557941221F
:1038200054547842215554784020545579400C1E08
:1038300052721239555555593954545459395554B1
:1038400054580000457C410002457D420001457C02
:10385000407D1211127DF0282528F07C545545003A
:103860002054547C547C0A097F4932494949323AF0
:103870004444443A324A4848303A4141217A3A4233
:10388000402078009DA0A07D3D4242423D3D404009
:10389000403D3C24FF2424487E4943662B2FFC2FC7
:1038A0002BFF0929F620C0887E0903205454794152
:1038B0000000447D413048484A32384040227A0076
:1038C0007A0A0A727D0D19317D2629292F28262989
:1038D00029292630484D40203808080808080808DB
:1038E00008382F10C8ACBA2F102834FA00007B001B
:1038F0000008142A142222142A14085500550055D1
:10390000AA55AA55AAFF55FF55FF000000FF001059
:103910001010FF00141414FF001010FF00FF10100F
:10392000F010F0141414FC001414F700FF0000FF52
:1039300000FF1414F404FC141417101F10101F10AF
:103940001F1414141F00101010F0000000001F10AE
:103950001010101F10101010F010000000FF1010B9
:1039600010101010101010FF10000000FF140000C5
:10397000FF00FF00001F10170000FC04F4141417D0
:1039800010171414F404F40000FF00F714141414B6
:10399000141414F700F7141414171410101F101F28
:1039A000141414F4141010F010F000001F101F0075
:1039B00000001F14000000FC140000F010F01010B4
:1039C000FF10FF141414FF141010101F000000004B
:1039D000F010FFFFFFFFFFF0F0F0F0F0FFFFFF003F
:1039E00000000000FFFF0F0F0F0F0F384444384452
:1039F000FC4A4A4A347E02020606027E027E0263C6
:103A0000554941633844443C04407E201E20060250
:103A10007E020299A5E7A5991C2A492A1C4C72012D
:103A2000724C304A4D4D303048784830BC625A466E
:103A30003D3E494949007E0101017E2A2A2A2A2A5F
:103A400044445F444440514A444040444A51400049
:103A500000FF0103E080FF000008086B6B083612CE
:103A6000362436060F090F06000018180000001053
:103A700010003040FF0101001F01011E00191D1739
:103A800012003C3C3C3C00000000002000210022D1
:103A90000023002400250026002700280029002AF2
:103AA000002B002C002D002E002F003000310032A2
:103AB0000033003400350036003700380039003A52
:103AC000003B003C003D003E003F00400041004202
:103AD0000043004400450046004700480049004AB2
:103AE000004B004C004D004E004F00500051005262
:103AF0000053005400550056005700580059005A12
:103B0000005B005C005D005E005F006000610062C1
:103B10000063006400650066006700680069006A71
:103B2000006B006C006D006E006F00700071007221
:103B30000073007400750076007700780079007AD1
:103B4000007B007C007D00A200A300A500A700A8C8
:103B500000AC00B000B100B400B600D700F700918F
:103B60000392039303940395039603970398039991
:103B7000039A039B039C039D039E039F03A003A141
:103B800003A303A403A503A603A703A803A903B1E2
:103B900003B203B303B403B503B603B703B803B961
:103BA00003BA03BB03BC03BD03BE03BF03C003C111
:103BB00003C303C403C503C603C703C803C9030182
:103BC0000410041104120413041404150416041739
:103BD00004180419041A041B041C041D041E041FE9
:103BE0000420042104220423042404250426042799
:103BF00004280429042A042B042C042D042E042F49
:103C000004300431043204330434043504360437F8
:103C100004380439043A043B043C043D043E043FA8
:103C20000440044104420443044404450446044758
:103C300004480449044A044B044C044D044E044F08
:103C4000045104102015201620182019201C201DB6
:103C5000202020212025202620322033203B203EFA
:103C6000200321162121212B216021612162216362
:103C700021642165216621672168216921902191B4
:103C80002192219321D221D4210022022203220752
:103C90002208220B22112212221A221D221E221F6A
:103CA0002220222722282229222A222B222C222EBD
:103CB00022342235223D225222602261226622676E
:103CC000226A226B228222832286228722A522A5B3
:103CD00022BF2212236024612462246324642465A9
:103CE0002466246724682469246A246B246C246D68
:103CF000246E246F247024712472247324A025A1BF
:103D000025B225B325BC25BD25C625C725CB25CE87
:103D100025CF25EF2505260626402642266A266D54
:103D2000266F2600300130023003300530063007A0
:103D300030083009300A300B300C300D300E300FA7
:103D4000301030113012301330143015301C301D4B
:103D5000301F3041304230433044304530463047E8
:103D600030483049304A304B304C304D304E304F77
:103D70003050305130523053305430553056305727
:103D800030583059305A305B305C305D305E305FD7
:103D90003060306130623063306430653066306787
:103DA00030683069306A306B306C306D306E306F37
:103DB00030703071307230733074307530763077E7
:103DC00030783079307A307B307C307D307E307F97
:103DD0003080308130823083308430853086308747
:103DE00030883089308A308B308C308D308E308FF7
:103DF0003090309130923093309B309C309D309E8B
:103E000030A130A230A330A430A530A630A730A80E
:103E100030A930AA30AB30AC30AD30AE30AF30B0BE
:103E200030B130B230B330B430B530B630B730B86E
:103E300030B930BA30BB30BC30BD30BE30BF30C01E
:103E400030C130C230C330C430C530C630C730C8CE
:103E500030C930CA30CB30CC30CD30CE30CF30D07E
:103E600030D130D230D330D430D530D630D730D82E
:103E700030D930DA30DB30DC30DD30DE30DF30E0DE
:103E800030E130E230E330E430E530E630E730E88E
:103E900030E930EA30EB30EC30ED30EE30EF30F03E
:103EA00030F130F230F330F430F530F630FB30FCE6
:103EB00030FD30FE30313232323932A432A532A6F2
:103EC00032A732A8328E338F339C339D339E33A179
:103ED00033C433CD33004E014E034E074E094E0A14
:103EE0004E0B4E0D4E164E214E264E2D4E384E3B4D
:103EF0004E454E574E5D4E714E734E884E894E8BD9
:103F00004E8C4E944EA14EA44EAC4EBA4EC14ECAEB
:103F10004ECF4ED54ED64ED84EE34EE44EE54EEE45
:103F20004EF24EF64EFB4E114F1A4F1D4F3C4F4D69
:103F30004F4E4F4F4F534F554F594F5C4F7F4F8B05
:103F40004F9B4FA14FBF4FC24FDD4FE14FEE4FF39D
:103F50004FF54F09500B500D5019501F5024505C15
:103F600050655074509950B750CD50CF5004512ADD
:103F7000514351445146514851495150515A51654C
:103F80005168516B516C516D517151755177517828
:103F900051855186518A518D519951AC51B751E695
:103FA00051FA510052065207520A5217521D52241A
:103FB00052255229523652375238523B5247524DAF
:103FC000526F527252755287529B529F52A052A901
:103FD00052AA52B452B952C752C952D552D952DD1F
:103FE00052E252E4520553165317533A533B53418E
:103FF00053435348534A5352535453575358535AA5
:10400000537053715375539A539F53B353BB53C259
:1040100053CB53CD53CE53D653D753E353E453E549
:1040200053EF53F053F253F353F753F85304540838
:10403000540C540D540E5411541B54265438544AE5
:1040400054685473547C547D548C54C154E154319D
:104050005546554F5584559C55B6556856DB56DE2A
:1040600056E056E356F056F256F356FA56FD5612FF
:10407000571F572757285730574257475782578B54
:1040800057CE57DF57FA57FC570258315834586902
:1040900058835893589758EB58F058F25809590FCD
:1040A00059155916591A591C592259275929592A4B
:1040B000592B592E5931594F596E5973597D59B948
:1040C00059BB59C959CB59D459FF59665A505B57F6
:1040D0005B585B5D5B635B665B6B5B855B875B888B
:1040E0005B895B8C5B975B985B995B9A5B9D5B9F45
:1040F0005BA25BA35BA45BAE5BB35BB65BB95BBF70
:104100005BC45BC65BCC5BD25BDF5BF85BFA5BFEE0
:104110005B025C045C065C0A5C0E5C0F5C115C314B
:104120005C3A5C405C455C4A5C4B5C555C5E5C6444
:104130005C715CA95CB85CF65CDD5DDE5DE35DE551
:104140005DE65DEE5DF15DFB5D025E035E0C5E2B88
:104150005E2D5E2F5E305E335E385E555E725E733E
:104160005E745E785E795E7C5E815E835E8F5E9556
:104170005E975E9C5EA65EA75EAB5EAD5EB75EF6CA
:104180005EFA5E015F0F5F135F155F1F5F315F3582
:104190005F375F535F625F795F805F845F855F8BAE
:1041A0005F8C5F925F935F975FA95FB35FC35FC5EB
:1041B0005FD75FD85FDC5FE05FEB5FF55F1D602579
:1041C00060276069606F60AA60B260C560F3600FCD
:1041D000611B611F614B616361B2611062116226F4
:1041E00062386240624B624D62536279627F6280E4
:1041F0006295629862C562DB62DD62E162FE620125
:10420000630763196368638863A163A263A563A8F6
:1042100063D063EE630D64CD642F6539653E653F01
:1042200065456551655765596563656C657065746D
:1042300065756587659965AD65B065B965C565CF17
:1042400065D765E565E765E9650E66136614661F63
:10425000662066256628662D663C66426669666F3E
:10426000667466916696669766AE66B466DC66F2BC
:1042700066F8660067086709670D6717671B671DA3
:10428000671F6728672A672B672C672D673A675077
:104290006751675F676167656771677E677F67976B
:1042A000679A679C679D67D367F167FB670468211E
:1042B000682A6839683C6848685C688568B068D274
:1042C00068EE680D691C696D6975697D69CB69D88F
:1042D00069196A216A296A2A6A396A4B6A5F6A20FF
:1042E0006B216B326B4C6B626B636B666B696B6FD4
:1042F0006B746B7B6B8B6BB56BBA6BCD6BCE6BD210
:104300006BD46BDB6B0F6C116C176C346C376C38C7
:104310006C426C606C7A6C7D6CB36CB96CBB6CBFBE
:104320006CC96CD56CE26CE36CE86CF36C0B6D17CC
:104330006D3B6D3E6D416D456D746D776D886DB2F1
:104340006DF16DF76D056E086E1B6E296E2C6E2F6C
:104350006E566E6F6E806E906E966E016F146F2249
:104360006F546F6E6FC06F6B706F7070707D70ADDB
:1043700070B970217136713C7167719F71B171C3F1
:10438000713672477248725B72677269727972AC89
:1043900072AF72B672EC72877389738B73ED73FEB2
:1043A00073037406741F7523752875307531753362
:1043B0007537753A753B754C755175597565756AE4
:1043C0007570759175C575DB757A767B767D767EB1
:1043D0007684768776AE76BF76CA76DB76DF76EE43
:1043E00076F476F87601770B770C771F773C774079
:1043F00077E277E577ED77F377027814783478BA57
:1044000078C1783A793C793E7956795D795E7968F8
:10441000796D7981798F79C179CB79D179D279D850
:1044200079FB790B7A0E7A2E7A407A4D7A747A7605
:104430007A7A7A937ACB7AE07AE57AF67AF97A110F
:104440007B1B7B2C7B467B497B4B7B547B567B9732
:104450007BA17BB17BC07BC97B217C737C897CBECB
:104460007CD67CF87CFB7C007D047D057D0D7D1475
:104470007D197D1A7D207D307D427D447D4C7D50AF
:104480007D667D717D757D767D797D9A7DBF7DCFE1
:104490007DD17DDA7DE87DF47D267E2E7E3E7E54C4
:1044A0007E6A7F6E7F727F8A7F8E7FA47FA97FBDA9
:1044B0007FCC7FD27F0180038005801580338056BA
:1044C000805E8077808980A580B280BA80C380CCEE
:1044D00080F880FD800881338178817981D381E300
:1044E00081E881EA81F38108820C820E822A823976
:1044F000826F827282B182B882BD82E582E682F1E9
:1045000082368349837783DC833D8449845784B82A
:10451000843585AC856B869586408846884C885363
:104520008857885B8863886888C188C588CF88DC9D
:1045300088FD8807897F8981898B898F8996899AE7
:1045400089A789AA89B389D289E389008A088A0E52
:104550008A138A188A2A8A2D8A318A338A3C8A5594
:104560008A5E8A668A698A718A8C8A8D8A958A9E11
:104570008AA08AA48AAC8AAD8AB28ABF8AC78AD640
:104580008AF88A1B8B1D8B588B668B708B778B37C9
:104590008C468C4A8C618C9D8CA08CA18CA78CA89D
:1045A0008CAC8CAF8CB48CB78CB88CBB8CBF8CC0F3
:1045B0008CC38CC78CDB8CDE8CEA8C648D708D7721
:1045C0008DB38DEF8DAB8ECA8ECD8EE28EFD8E2A91
:1045D0008F388F9E8FB28FBA8FD18FD48FF08FF795
:1045E0008FFD8F0090019006901A901F90209023CD
:1045F00090319032904A904B904E905390549060EE
:1046000090699078907A90E190E890F590F790FD1D
:10461000904D9152917891CC91CD91CE91CF91D1F5
:1046200091DD914492719280928592AD92FC92328A
:1046300093E1937795809589958B959395A295A312
:104640009532964D9650965B966296649678967AD9
:10465000967D968A968E969B969C96C696D196E364
:1046600096E896EA96F296FB96529759975E97626D
:10467000976997F39702980698109818982D984C78
:10468000984D98549858985E98A898DB98DF98EFC2
:1046900098F298FC980A9928999699AC99C599131B
:1046A0009AA89AD89A5A9BE59CF49CA69EC49ED23E
:1046B0009E3B9F01FF03FF04FF05FF06FF08FF0964
:1046C000FF0AFF0BFF0CFF0EFF0FFF10FF11FF1281
:1046D000FF13FF14FF15FF16FF17FF18FF19FF1A2E
:1046E000FF1BFF1CFF1DFF1EFF1FFF20FF21FF22DE
:1046F000FF23FF24FF25FF26FF27FF28FF29FF2A8E
:10470000FF2BFF2CFF2DFF2EFF2FFF30FF31FF323D
:10471000FF33FF34FF35FF36FF37FF38FF39FF3AED
:10472000FF3BFF3DFF3EFF3FFF40FF41FF42FF4396
:10473000FF44FF45FF46FF47FF48FF49FF4AFF4B45
:10474000FF4CFF4DFF4EFF4FFF50FF51FF52FF53F5
:10475000FF54FF55FF56FF57FF58FF59FF5AFF5BA5
:10476000FF5CFF5DFF61FF62FF63FF64FF65FF6643
:10477000FF67FF68FF69FF6AFF6BFF6CFF6DFF6EED
:10478000FF6FFF70FF71FF72FF73FF74FF75FF769D
:10479000FF77FF78FF79FF7AFF7BFF7CFF7DFF7E4D
:1047A000FF7FFF80FF81FF82FF83FF84FF85FF86FD
:1047B000FF87FF88FF89FF8AFF8BFF8CFF8DFF8EAD
:1047C000FF8FFF90FF91FF92FF93FF94FF95FF965D
:1047D000FF97FF98FF99FF9AFF9BFF9CFF9DFF9E0D
:1047E000FF9FFFE3FFE5FF00002100240027002AD0
:1047F000002D003000330001010000040107010A10
:104800000100000A0B02090C0D0E08070304010049
:104810000000000000000000000000000000000098
:104820000000000000000000000000000012111055
:104830000000000000000000000000000000000078
:10484000000000000000002A2A2A20EFBE80EFBDF1
:10485000AFEFBE81EFBE8AEFBE9FEFBE88EFBE997D
:1048600020EFBE8EEFBDBEEFBDB220EFBE83EFBE28
:104870009EEFBDB0EFBE8020EFBDBBEFBDB8EFBD7A
:10488000BEEFBDB220EFBDA620EFBDBBEFBDB2EFC6
:10489000BE84EFBE9E20EFBDBCEFBE8FEFBDBDEF6F
:1048A000BDB6203F202820313A20596573202C20A6
:1048B000303A204E6F2029002A2A2A20EFBE80EFAE
:1048C000BDAFEFBE81EFBE8AEFBE9FEFBE88EFBEE9
:1048D0009920EFBE8EEFBDBEEFBDB220EFBE83EFDD
:1048E000BE9EEFBDB0EFBE8020EFBDB6EFBE9E20F6
:1048F000EFBE8EEFBDBFEFBE9EEFBE9D20EFBDBBF6
:10490000EFBE9AEFBE83EFBDB2EFBE8FEFBDBDEF3E
:10491000BDA1002A2A2A2041726475696E6F204D5C
:104920004547413235363020EFBE8920454550524B
:104930004F4D20307831302D3078313720EFBE8622
:10494000002A2A2A2054535F444F574E20287920AA
:104950003D2034383029203A20002A2A2A20545376
:104960005F55502020202879203D2020203029200C
:104970003A20002A2A2A2054535F52494748542893
:1049800078203D2033323029203A20002A2A2A205C
:1049900054535F4C454654202878203D2020203039
:1049A00029203A20002A2A2A2041726475696E6FF4
:1049B000204D45474132353630204143EFBDB1EF00
:1049C000BE80EFBE9EEFBE8CEFBE9FEFBE80EFBD00
:1049D000B020EFBE8920EFBDBBEFBDBCEFBDBAEF8D
:1049E000BE90EFBDB8EFBE9EEFBE8120EFBDB6EF2B
:1049F000BE9E20EFBDB1EFBE9920EFBDB6EFBE9ECB
:104A0000EFBE92EFBE9D20EFBE8920EFBDB6EFBE98
:104A100084EFBE9E20EFBDA62028782C79293D2862
:104A2000302C302920EFBE84EFBDBCEFBE8FEFBD30
:104A3000BDEFBDA1002A2A2A2054535F78787878E8
:104A4000787820EFBE8A20EFBE80EFBDAFEFBE8149
:104A500020EFBDBBEFBE9EEFBE8BEFBDAEEFBDB393
:104A600028782C792920EFBDA620EFBE8AEFBE9DC5
:104A7000EFBE83EFBDB220EFBDBDEFBE99EFBE80AC
:104A8000EFBE92EFBE8920EFBDBBEFBDB2EFBDBC64
:104A9000EFBDAEEFBDB3EFBE8120EFBDBBEFBDB24A
:104AA000EFBE80EFBE9EEFBDB2EFBE8120EFBE83B2
:104AB000EFBE9EEFBDBDEFBDA10028282828282805
:104AC0002828282828282828282828282828204551
:104AD0006E74657220EFBE83EFBE9E20EFBDBCEF0B
:104AE000BE9EEFBDAFEFBDBAEFBDB3202929292986
:104AF0002929292929292929292929292929292926
:104B0000290041726475696E6F20EFBE84205043A6
:104B100020EFBE84EFBDA620EFBDBAEFBDB3EFBD61
:104B2000BAEFBE9E20EFBE8620EFBDBFEFBDB3EF54
:104B3000BDBB20EFBDBCEFBE83EFBDB8EFBE80EFC5
:104B4000BE9EEFBDBBEFBDB2EFBDA100EFBE80EFDB
:104B5000BDAFEFBE81EFBE8AEFBE9FEFBE88EFBE56
:104B60009920EFBE8920EFBE8BEFBE80EFBE9EEF97
:104B7000BE98EFBDB3EFBDB420EFBDB6EFBE97203A
:104B8000EFBE8AEFBDBCEFBE9EEFBE92EFBE8FEFD1
:104B9000BDBDEFBDA100EFBDBCEFBE9EEFBDADEF53
:104BA000BE9DEFBE8AEFBE9EEFBE9D20EFBE86206B
:104BB0003420EFBDBDEFBE9020EFBE8920EFBDBC1D
:104BC000EFBDB6EFBDB820EFBE8920EFBE81EFBDCF
:104BD000ADEFBDB3EFBDBCEFBE9D20EFBDA620EF96
:104BE000BE80EFBDAFEFBE81EFBE8DEFBE9FEFBECB
:104BF0009D20EFBE83EFBE9E203120EFBDB6EFBDFE
:104C0000B220EFBDB5EFBDBCEFBE8320EFBDB8EF66
:104C1000BE80EFBE9EEFBDBBEFBDB2EFBDA1002ACF
:104C20002A2A2A2A2A2A2A2A2A2A2A20EFBE80EF7A
:104C3000BDAFEFBE81EFBE8AEFBE9FEFBE88EFBE75
:104C40009920EFBE8EEFBDBEEFBDB228494C493969
:104C5000343836203332305834383029202A2A2A42
:104C60002A2A2A2A2A2A2A2A2A2A2A2A00EFBE801F
:104C7000EFBDAFEFBE81EFBE8AEFBE9FEFBE88EF04
:104C8000BE9920EFBE8920EFBE90EFBDB7EFBE9E6C
:104C9000EFBDB3EFBDB420EFBE8620EFBDB2EFBED7
:104CA00084EFBE9EEFBDB320EFBDBCEFBE8FEFBD66
:104CB000BDEFBDB6203F202820313A205965732032
:104CC0002C20303A204E6F202900EFBE80EFBDAF80
:104CD000EFBE81EFBE8AEFBE9FEFBE88EFBE992088
:104CE000EFBE8920EFBE90EFBDB7EFBE9EEFBDBC1B
:104CF000EFBE8020EFBE8620EFBDB2EFBE84EFBED8
:104D00009EEFBDB320EFBDBCEFBE8FEFBDBDEFBDCD
:104D1000B6203F202820313A20596573202C2030BE
:104D20003A204E6F202900EFBE80EFBDAFEFBE816D
:104D3000EFBE8AEFBE9FEFBE88EFBE9920EFBE891F
:104D400020EFBE8BEFBE80EFBE9EEFBE98EFBDBCE6
:104D5000EFBE8020EFBE8620EFBDB2EFBE84EFBE77
:104D60009EEFBDB320EFBDBCEFBE8FEFBDBDEFBD6D
:104D7000B6203F202820313A20596573202C20305E
:104D80003A204E6F202900EFBDBCEFBDADEFBDB3A3
:104D9000EFBE98EFBDAEEFBDB320EFBDBCEFBE8F51
:104DA000EFBDBDEFBDB6203F202820313A20596528
:104DB00073202C20303A204E6F2029002A2A2A20E6
:104DC000EFBE80EFBDAFEFBE81EFBE8AEFBE9FEFBB
:104DD000BE88EFBE9920EFBE8EEFBDBEEFBDB22004
:104DE000EFBE83EFBE9EEFBDB0EFBE8020EFBDB63D
:104DF000EFBE9E20EFBDBBEFBDB8EFBDBEEFBDB2B5
:104E000020EFBDBBEFBE9AEFBE8FEFBDBCEFBE8003
:104E1000EFBDA1002A2A2A2054535F444F574E2049
:104E20002879203D2034383029203A20002A2A2AA7
:104E30002054535F55502020202879203D202020E9
:104E40003029203A20002A2A2A2054535F52494709
:104E500048542878203D2033323029203A20002A37
:104E60002A2A2054535F4C454654202878203D2060
:104E700020203029203A20002A2A2A2041726475F5
:104E8000696E6F204D45474132353630204143EF42
:104E9000BDB1EFBE80EFBE9EEFBE8CEFBE9FEFBEFA
:104EA00080EFBDB020EFBE8920EFBDBBEFBDBCEFF2
:104EB000BDBAEFBE90EFBDB8EFBE9EEFBE8120EF52
:104EC000BDB6EFBE9E20EFBDB1EFBE9920EFBDB6DF
:104ED000EFBE9EEFBE92EFBE9D20EFBE8920EFBDDC
:104EE000B6EFBE84EFBE9E20EFBDA62028782C79B9
:104EF000293D28302C302920EFBE84EFBDBCEFBE09
:104F00008FEFBDBDEFBDA1002A2A2A2054535F7840
:104F1000787878787820EFBE8A20EFBE80EFBDAF3A
:104F2000EFBE8120EFBDBBEFBE9EEFBE8BEFBDAEEF
:104F3000EFBDB328782C792920EFBDA620EFBE8ADB
:104F4000EFBE9DEFBE83EFBDB220EFBDBDEFBE99BA
:104F5000EFBE80EFBE92EFBE8920EFBDBBEFBDB2CA
:104F6000EFBDBCEFBDAEEFBDB3EFBE8120EFBDBB6B
:104F7000EFBDB2EFBE80EFBE9EEFBDB2EFBE8120AF
:104F8000EFBE83EFBE9EEFBDBDEFBDA100B001D06F
:104F900001F00110023002500270029002B002D003
:104FA00002F00210033003500370039003B003EFCC
:104FB000BE80EFBDAFEFBE81EFBE8AEFBE9FEFBEFA
:104FC00088EFBE9920EFBE8620EFBE80EFBDAFEF29
:104FD000BE81EFBE8DEFBE9FEFBE9D20EFBE83EF83
:104FE000BE9E20EFBE85EFBE86EFBDB620EFBDB6FC
:104FF000EFBDB2EFBE8320EFBDB6EFBDB8EFBE860A
:10500000EFBE9D20EFBDBCEFBE83EFBDB8EFBE800D
:10501000EFBE9EEFBDBBEFBDB2EFBDA100EFBE8006
:10502000EFBDAFEFBE81EFBE8AEFBE9FEFBE88EF50
:10503000BE9920EFBE83EFBE9E20EFBE83EFBDBDC5
:10504000EFBE8420EFBDA620EFBDBCEFBE8FEFBD4D
:10505000BDEFBDB6203F202820313A20596573208E
:105060002C20303A204E6F2029002A2A2A20EFBD1A
:10507000BCEFBDAEEFBE9820EFBE8A20EFBDBCEF07
:10508000BDADEFBDB3EFBE98EFBDAEEFBDB320EF4A
:10509000BDBCEFBE8FEFBDBCEFBE80EFBDA1002356
:1050A000232320EFBDB7EFBDACEFBE9DEFBDBEEF3C
:1050B000BE9920EFBDBBEFBE9AEFBE8FEFBDBCEF38
:1050C000BE80EFBDA1002A2A2A2041726475696E54
:1050D0006F204D45474132353630204143EFBDB159
:1050E000EFBE80EFBE9EEFBE8CEFBE9FEFBE80EFA7
:1050F000BDB020EFBE8920EFBDBBEFBDBCEFBDBA98
:10510000EFBE90EFBDB8EFBE9EEFBE8120EFBDB603
:10511000EFBE9E20EFBDB1EFBE9920EFBDB6EFBE52
:105120009EEFBE92EFBE9D20EFBE8920EFBDB6EF91
:10513000BE84EFBE9E20EFBDA62028782C79293DA5
:1051400028302C302920EFBE84EFBDBCEFBE8FEF9E
:10515000BDBDEFBDA1002A2A2A2054535F7878787C
:1051600078787820EFBE8A20EFBE80EFBDAFEFBE2B
:105170008120EFBDBBEFBE9EEFBE8BEFBDAEEFBD9E
:10518000B328782C792920EFBDA620EFBE8AEFBE88
:105190009DEFBE83EFBDB220EFBDBDEFBE99EFBE68
:1051A00080EFBE92EFBE8920EFBDBBEFBDB2EFBD79
:1051B000BCEFBDAEEFBDB3EFBE8120EFBDBBEFBD19
:1051C000B2EFBE80EFBE9EEFBDB2EFBE8120EFBE5C
:1051D00083EFBE9EEFBDBDEFBDA1002A2A2A205459
:1051E000535F444F574E202879203D2034383029D2
:1051F000203A20002A2A2A2054535F55502020208C
:105200002879203D2020203029203A20002A2A2AEF
:105210002054535F52494748542878203D20333268
:105220003029203A20002A2A2A2054535F4C454630
:1052300054202878203D2020203029203A20002AA0
:105240002A2A20EFBE8EEFBDBFEFBE9EEFBE9D208F
:10525000EFBDBBEFBE9AEFBE8020454550524F4D8B
:1052600020307831302D3078313720EFBE8920EF73
:10527000BE85EFBDB2EFBE96EFBDB300EFBE80EFCF
:10528000BDAFEFBE81EFBE8AEFBE9FEFBE88EFBE1F
:105290009920EFBE8EEFBDBEEFBDB220EFBE83EF13
:1052A000BE9EEFBDB0EFBE8020EFBDA620EFBE8E4C
:1052B000EFBDBFEFBE9EEFBE9D20EFBDBCEFBE8F2A
:1052C000EFBDBDEFBDB6203F202820313A20596503
:1052D00073202C20303A204E6F202900D003100478
:1052E00050049004D004100550059005D005100618
:1052F000500611007F96290001007F9628003A0190
:1053000055C0021010C10141C50400228040360181
:1053100068B00100B102B011B40102B60302023B51
:10532000B701C63A0155F704A9512C82B701C6E866
:1053300008408A00002919A533C0020D0DC102439F
:1053400000C20100C50400480048B40100B60302D1
:10535000023BE00F0F211C0B0E084998380911037E
:10536000141000E10F0F2F2B0C0E06477637071194
:1053700004231E00B00100B30402000000B40100C9
:10538000D003074218D103000710D2020102D30252
:105390000102D4020102C005123B000211C1031038
:1053A0001088C50103C60102C80C00323645061636
:1053B000377577540C00CC0100F603010100CF03D0
:1053C000008130ED0464031281E803851078CB0579
:1053D000392C003402F70120EA020000B00100B1CC
:1053E00002001BB40100C00121C10111C5023F3CF4
:1053F000C701B5360148F20100260101E00F0F2672
:10540000240B0E0954A8460C17090F0700E10F00E2
:10541000191B0410072A473903060630380F3601D6
:1054200000B80101C0010EB00100C1041010020259
:10543000C006003500000102C50104D2020104CA01
:105440000100EA0180B903FF83577F967F96B6017A
:1054500025C0065050013C1E08B4070240002A2A0D
:105460000D787F01F20B16160308080808100416C1
:1054700016FD03110235B2050C0C003333B70135AC
:10548000BB012BC00104C20201FFC30111C40120F2
:10549000C6010FD002A4A1E00ED000050E150D37F5
:1054A00043470915121619E10ED000050D0C062D03
:1054B00044400E1C1816193A01557F0A06000700D1
:1054C000B1020012B40102B60400202700CA010193
:1054D000CB0103C001137F14C501CCC60100C70175
:1054E00004C80103CC0106CD011CF9021515F30314
:1054F0000A020AF603011000FA00FB00B00103E201
:10550000013FC00122E20100B00100C0010AB00168
:10551000000000000000000000000000000000008B
:1055200000FFFF0F000004006208000808000300ED
:105530000C01030B5A0203060903031710040300AE
:105540002305030017060309630703090C08030C6E
:105550001009033222100016001100010112000090
:1055600000130001000001300301013702030100B4
:105570000D800200610201B0C1FFFF320001000096
:10558000010200000103003010090001000C0000BE
:1055900000900000800F000000100200001102EFD8
:1055A000001202000013028F010005000001050037
:1055B0000002055F000104010004040000FFFF3247
:1055C0000007000001FFFF3200000200000102009E
:1055D00000000000000000000000000000000001CA
:1055E00000A4000100FFFF0A006000002708000877
:1055F000083000140231001537320004063300165B
:105600000E340011223500001536000785370007DB
:105610001438000314390020009000150010001009
:105620000411003702290046002A00460007000046
:10563000001200890113000011FFFF96001200B94B
:105640000101000001020000020300301009000106
:10565000000A0000000D0000000E00300061000193
:10566000006A000000800000008100000082005FEE
:10567000009200000193000107FFFF5000070000A7
:1056800001E500F078010000010200000203003093
:1056900010040000000500000008000702090000D7
:1056A000000A0000000C0000000D0000000F0000C8
:1056B000001000000011000700120000001300009D
:1056C0000007000100FFFFC800100090161100271E
:1056D00002FFFF320012000D00FFFF320013000036
:1056E0001229000A002B000D00FFFF3200200000ED
:1056F00000210000003000000031000404320003EB
:105700000035000504360008083700070438000398
:1057100003390007073C0004053D0008086000004D
:1057200027610001006A0000008000000081000085
:10573000008200000083000000840000008500005B
:1057400000900010009200000007003301E5000007
:10575000800000010001000001020000070300308A
:10576000100400000008000202090000000A000006
:10577000000C0000000D0000000F000000100000F1
:1057800000110007001200000013000000FFFF32AC
:10579000001000B01711000700FFFF0A0012003AC6
:1057A00001FFFF0A001300001A29000C00FFFF0A86
:1057B000003000000031000505320004003500060D
:1057C00000360007073700050138000200390007DE
:1057D000073C0004073D000708600000A7610001C6
:1057E000006A00000021000000200000008000008E
:1057F000008100000082000000830000008400009F
:10580000008500000090001000920000009300034B
:105810000095001001970000009800000007007339
:1058200001FFFF3200010000010200000703003009
:105830001008000203090000000A00080010000020
:1058400000110005001200000013000000FFFF64BB
:10585000001000B012FFFF320011000700FFFF32FE
:105860000012008C001300001729002000FFFF32F7
:105870000030000000310006013200010135000651
:105880000136000302370000003800070739000422
:10589000023C0006013D000301600000A761000119
:1058A000009000300007003301FFFF320015003088
:1058B000009A00100011002000100028341200028D
:1058C0000013003810FFFF280012001200FFFF280D
:1058D000001000203413004530FFFF460030000068
:1058E00000310002043200070333000403340004D3
:1058F00000350001043600070737000503380010A3
:105900000639001006010000010200000303003008
:1059100010080008080A0008006000002761000164
:105920000090003E019200000193000001A00000E1
:1059300030A300100007000100070021000700232A
:1059400000070033000700330111001A0012002184
:105950003113006C001400494210000008FFFF0AD8
:105960000011001A01FFFF0A0011001A03FFFF0ACD
:105970000011001A07FFFF0A0011001A0FFFFF0AAB
:105980000011003A0FFFFF1E000100280102000075
:10599000010300301007001210080003030B000081
:1059A000110C0000000F000118150020005000012C
:1059B0000151000306520008045300000054000582
:1059C0000655000604560003035700030358001051
:1059D000005900001007001200FFFF280007001305
:1059E00000070017000102102020080810204010B6
:1059F0002040800201020108040201010204081093
:105A000020408080402010080402018004020180B0
:105A100040201008040201080402010102040810D9
:105A20002040800102040810204080000022002550
:105A30000028002B002E0031003400020100000578
:105A40000108010B010505050507050808080802FE
:105A50000202020A0A080804040404010101010107
:105A60000101010303030303030303040707070CF6
:105A70000C0C0C0C0C0C0C020202020606060606AC
:105A80000606060B0B0B0B0B0B0B0B00194E112410
:105A90001FBECFEFD1E2DEBFCDBF00E00CBF12E0F2
:105AA000A0E0B2E0EEE1FCEB00E00BBF02C007902B
:105AB0000D92AE35B107D9F724E0AEE5B2E001C0F2
:105AC0001D92A935B207E1F71DE2C7E4DDE200E06F
:105AD00006C021970109802FFE010E94005EC63496
